{
  "_format": "hh-sol-artifact-1",
  "contractName": "DEiDProfile",
  "sourceName": "contracts/core/DEiDProfile.sol",
  "abi": [
    {
      "inputs": [],
      "stateMutability": "nonpayable",
      "type": "constructor"
    },
    {
      "anonymous": false,
      "inputs": [
        {
          "indexed": true,
          "internalType": "address",
          "name": "owner",
          "type": "address"
        },
        {
          "indexed": false,
          "internalType": "string",
          "name": "username",
          "type": "string"
        },
        {
          "indexed": false,
          "internalType": "string",
          "name": "metadataURI",
          "type": "string"
        }
      ],
      "name": "ProfileCreated",
      "type": "event"
    },
    {
      "anonymous": false,
      "inputs": [
        {
          "indexed": true,
          "internalType": "address",
          "name": "owner",
          "type": "address"
        },
        {
          "indexed": false,
          "internalType": "string",
          "name": "metadataURI",
          "type": "string"
        }
      ],
      "name": "ProfileUpdated",
      "type": "event"
    },
    {
      "anonymous": false,
      "inputs": [
        {
          "indexed": true,
          "internalType": "address",
          "name": "owner",
          "type": "address"
        },
        {
          "indexed": false,
          "internalType": "string",
          "name": "platform",
          "type": "string"
        },
        {
          "indexed": false,
          "internalType": "string",
          "name": "accountId",
          "type": "string"
        }
      ],
      "name": "SocialAccountLinked",
      "type": "event"
    },
    {
      "anonymous": false,
      "inputs": [
        {
          "indexed": true,
          "internalType": "address",
          "name": "owner",
          "type": "address"
        },
        {
          "indexed": false,
          "internalType": "string",
          "name": "platform",
          "type": "string"
        },
        {
          "indexed": false,
          "internalType": "string",
          "name": "accountId",
          "type": "string"
        }
      ],
      "name": "SocialAccountUnlinked",
      "type": "event"
    },
    {
      "inputs": [
        {
          "internalType": "address",
          "name": "validator",
          "type": "address"
        }
      ],
      "name": "addValidator",
      "outputs": [],
      "stateMutability": "nonpayable",
      "type": "function"
    },
    {
      "inputs": [
        {
          "internalType": "string",
          "name": "username",
          "type": "string"
        },
        {
          "internalType": "string",
          "name": "metadataURI",
          "type": "string"
        },
        {
          "internalType": "bytes",
          "name": "deid_validator_signature",
          "type": "bytes"
        }
      ],
      "name": "createProfile",
      "outputs": [],
      "stateMutability": "nonpayable",
      "type": "function"
    },
    {
      "inputs": [],
      "name": "getAllProfiles",
      "outputs": [
        {
          "internalType": "address[]",
          "name": "",
          "type": "address[]"
        },
        {
          "internalType": "string[]",
          "name": "",
          "type": "string[]"
        },
        {
          "internalType": "string[]",
          "name": "",
          "type": "string[]"
        }
      ],
      "stateMutability": "view",
      "type": "function"
    },
    {
      "inputs": [
        {
          "internalType": "address",
          "name": "owner",
          "type": "address"
        }
      ],
      "name": "getProfile",
      "outputs": [
        {
          "components": [
            {
              "internalType": "string",
              "name": "username",
              "type": "string"
            },
            {
              "internalType": "string",
              "name": "metadataURI",
              "type": "string"
            },
            {
              "internalType": "address[]",
              "name": "wallets",
              "type": "address[]"
            },
            {
              "internalType": "string[]",
              "name": "socialAccounts",
              "type": "string[]"
            },
            {
              "internalType": "uint256",
              "name": "createdAt",
              "type": "uint256"
            },
            {
              "internalType": "uint256",
              "name": "lastUpdated",
              "type": "uint256"
            },
            {
              "internalType": "bool",
              "name": "isActive",
              "type": "bool"
            }
          ],
          "internalType": "struct DEiDProfileLibrary.Profile",
          "name": "",
          "type": "tuple"
        }
      ],
      "stateMutability": "view",
      "type": "function"
    },
    {
      "inputs": [
        {
          "internalType": "address",
          "name": "owner",
          "type": "address"
        }
      ],
      "name": "getSocialAccounts",
      "outputs": [
        {
          "internalType": "string[]",
          "name": "platforms",
          "type": "string[]"
        },
        {
          "internalType": "string[]",
          "name": "accountIds",
          "type": "string[]"
        }
      ],
      "stateMutability": "view",
      "type": "function"
    },
    {
      "inputs": [],
      "name": "getValidators",
      "outputs": [
        {
          "internalType": "address[]",
          "name": "",
          "type": "address[]"
        }
      ],
      "stateMutability": "view",
      "type": "function"
    },
    {
      "inputs": [
        {
          "internalType": "string",
          "name": "platform",
          "type": "string"
        },
        {
          "internalType": "string",
          "name": "accountId",
          "type": "string"
        }
      ],
      "name": "getWalletBySocialAccount",
      "outputs": [
        {
          "internalType": "address",
          "name": "",
          "type": "address"
        }
      ],
      "stateMutability": "view",
      "type": "function"
    },
    {
      "inputs": [
        {
          "internalType": "address",
          "name": "owner",
          "type": "address"
        }
      ],
      "name": "init",
      "outputs": [],
      "stateMutability": "nonpayable",
      "type": "function"
    },
    {
      "inputs": [
        {
          "internalType": "string",
          "name": "platform",
          "type": "string"
        },
        {
          "internalType": "string",
          "name": "accountId",
          "type": "string"
        }
      ],
      "name": "isAccountIdLinked",
      "outputs": [
        {
          "internalType": "bool",
          "name": "",
          "type": "bool"
        }
      ],
      "stateMutability": "view",
      "type": "function"
    },
    {
      "inputs": [
        {
          "internalType": "address",
          "name": "validator",
          "type": "address"
        }
      ],
      "name": "isValidator",
      "outputs": [
        {
          "internalType": "bool",
          "name": "",
          "type": "bool"
        }
      ],
      "stateMutability": "view",
      "type": "function"
    },
    {
      "inputs": [
        {
          "internalType": "string",
          "name": "platform",
          "type": "string"
        },
        {
          "internalType": "string",
          "name": "accountId",
          "type": "string"
        },
        {
          "internalType": "bytes",
          "name": "deid_validator_signature",
          "type": "bytes"
        }
      ],
      "name": "linkSocialAccount",
      "outputs": [],
      "stateMutability": "nonpayable",
      "type": "function"
    },
    {
      "inputs": [
        {
          "internalType": "address",
          "name": "addr",
          "type": "address"
        }
      ],
      "name": "resolveAddress",
      "outputs": [
        {
          "internalType": "string",
          "name": "",
          "type": "string"
        }
      ],
      "stateMutability": "view",
      "type": "function"
    },
    {
      "inputs": [
        {
          "internalType": "string",
          "name": "username",
          "type": "string"
        }
      ],
      "name": "resolveUsername",
      "outputs": [
        {
          "internalType": "address",
          "name": "",
          "type": "address"
        }
      ],
      "stateMutability": "view",
      "type": "function"
    },
    {
      "inputs": [
        {
          "internalType": "string",
          "name": "platform",
          "type": "string"
        },
        {
          "internalType": "string",
          "name": "accountId",
          "type": "string"
        }
      ],
      "name": "unlinkSocialAccount",
      "outputs": [],
      "stateMutability": "nonpayable",
      "type": "function"
    },
    {
      "inputs": [
        {
          "internalType": "string",
          "name": "metadataURI",
          "type": "string"
        },
        {
          "internalType": "bytes",
          "name": "deid_validator_signature",
          "type": "bytes"
        }
      ],
      "name": "updateProfile",
      "outputs": [],
      "stateMutability": "nonpayable",
      "type": "function"
    },
    {
      "inputs": [],
      "name": "withdraw",
      "outputs": [],
      "stateMutability": "nonpayable",
      "type": "function"
    },
    {
      "stateMutability": "payable",
      "type": "receive"
    }
  ],
  "bytecode": "0x608080604052346015576124c5908161001b8239f35b600080fdfe6080604052600436101561001b575b361561001957600080fd5b005b60003560e01c806307029f911461011b5780630b1fe784146101165780630f53a4701461011157806319ab453c1461010c578063305bc38e146101075780633ccfd60b146101025780633d840a23146100fd578063412738c8146100f85780634d238c8e146100f357806354d58bd8146100ee5780636eeb9b10146100e95780637d1febd4146100e4578063a9059523146100df578063b7ab4db5146100da578063f81e8775146100d55763facd743b0361000e57610e3a565b610e0c565b610dcb565b610d9f565b610d51565b610c8d565b610aaa565b610a70565b61096a565b61075b565b6106dd565b6106ba565b61051d565b610424565b610318565b6101e8565b6020906003190112610142576004356001600160a01b03811681036101425790565b600080fd5b60005b83811061015a5750506000910152565b818101518382015260200161014a565b9060209161018381518092818552858086019101610147565b601f01601f1916010190565b9080602083519182815201916020808360051b8301019401926000915b8383106101bb57505050505090565b90919293946020806101d9600193601f19868203018752895161016a565b970193019301919392906101ac565b34610142576101f636610120565b610207610202826110b4565b61124e565b9061021282516112e2565b9160005b815181101561027357600190610250610257610244610234876110ed565b61023e8588611342565b516113e5565b604051928380926111b0565b03826105ea565b6102618287611342565b5261026c8186611342565b5001610216565b61028f8261029d8660405193849360408552604085019061018f565b90838203602085015261018f565b0390f35b906020808351928381520192019060005b8181106102bf5750505090565b82516001600160a01b03168452602093840193909201916001016102b2565b91610307906102f961031595936060865260608601906102a1565b90848203602086015261018f565b91604081840391015261018f565b90565b346101425760003660031901126101425761033161140b565b600080516020612499833981519152549061034b826112e2565b91610355816112e2565b9060005b81811061037257505061029d90604051938493846102de565b806103a861038160019361153b565b848060a01b0391549060031b1c166103998388611342565b6001600160a01b039091169052565b6103d96103d46103cf6103ba8461153b565b905460039190911b1c6001600160a01b031690565b611126565b611233565b6103e38288611342565b526103ee8187611342565b50610408826104026103cf6103ba8561153b565b01611233565b6104128286611342565b5261041d8185611342565b5001610359565b346101425761044361043536610120565b61043d610e68565b506115bd565b6040516020815261049361047d610467845160e0602086015261010085019061016a565b6020850151848203601f1901604086015261016a565b6040840151838203601f190160608501526102a1565b606083015190601f19838203016080840152815180825260208201916020808360051b8301019401926000915b8383106104f05786808761029d60c08c608081015160a086015260a081015182860152015160e084019015159052565b909192939460208061050e600193601f19868203018752895161016a565b970193019301919392906104c0565b346101425761052b36610120565b600080516020612479833981519152546001600160a01b03166105795760008051602061247983398151915280546001600160a01b0319166001600160a01b038316179055610019906116ec565b60405162461bcd60e51b8152602060048201526013602482015272105b1c9958591e481a5b9a5d1a585b1a5e9959606a1b6044820152606490fd5b634e487b7160e01b600052604160045260246000fd5b60e081019081106001600160401b038211176105e557604052565b6105b4565b90601f801991011681019081106001600160401b038211176105e557604052565b6040519061061a60e0836105ea565b565b81601f82011215610142576020813591016001600160401b0382116105e55760405192610653601f8401601f1916602001856105ea565b828452828201116101425781600092602092838601378301015290565b906040600319830112610142576004356001600160401b038111610142578261069b9160040161061c565b91602435906001600160401b038211610142576103159160040161061c565b346101425760206106d36106cd36610670565b906117a0565b6040519015158152f35b346101425760003660031901126101425760008051602061247983398151915254610712906001600160a01b03163314610ea2565b600080808060018060a01b036000805160206124798339815191525416479082908215610751575b6001600160a01b031690f11561074c57005b610ef8565b6108fc915061073a565b346101425761076936610670565b6107806080610777336115bd565b01511515610f04565b610797600461078e33611126565b01541515610f04565b6107c36107af6103d46107a9336110ed565b856113e5565b6020815191012082516020840120146117bd565b6107dd6107d86107d2336110ed565b846113e5565b611860565b6108026107f26107ec8461135b565b836113e5565b80546001600160a01b0319169055565b602082019060005b610813336110b4565b548110156108d5576108366108308261082b336110b4565b6115a5565b50611233565b60208151910120845184201461084e5760010161080a565b7f853027f5b9329959bfd3fd59cb53e04145a91ff078a77a414715d1246de32a5f9250906108b16108d0926108ab6108a0610888336110b4565b61089a610894336110b4565b546118b9565b906115a5565b509161082b336110b4565b90611a06565b6108c26108bd336110b4565b611a1a565b604051918291339583610f49565b0390a2005b507f853027f5b9329959bfd3fd59cb53e04145a91ff078a77a414715d1246de32a5f91506108d0906108c2565b6060600319820112610142576004356001600160401b038111610142578161092c9160040161061c565b916024356001600160401b038111610142578261094b9160040161061c565b91604435906001600160401b038211610142576103159160040161061c565b34610142576109cf6109ca61097e36610902565b61099461098f849694959395611ab6565b610f6e565b60405160208101906109c260208288516109b18187858d01610147565b81010301601f1981018352826105ea565b519020611c26565b610fc4565b6109ea6001600160a01b036109e384611d69565b161561100f565b60806109f5336115bd565b0151610a2b576108d0816108c27f6b4494367229a908b0585b361e2871a21f8eb4cd852c02f55c9e06989f4bb2aa938533612032565b60405162461bcd60e51b815260206004820152601d60248201527f4164647265737320616c72656164792068617320612070726f66696c650000006044820152606490fd5b3461014257610019610a8136610120565b60008051602061247983398151915254610aa5906001600160a01b03163314610ea2565b6116ec565b3461014257610ae16109ca610abe36610902565b60409492949391935160208101906109c260208288516109b18187858d01610147565b610af4610aee82846117a0565b15611054565b610b026080610777336115bd565b805115610c5357610b17600461078e33611126565b610b238151151561217a565b610b516001600160a01b03610b4a610b3d6107a98661135b565b546001600160a01b031690565b1615611054565b60009060208301825b610b63336110b4565b54811015610c2657610b7b6108308261082b336110b4565b602081519101208551832014610b9357600101610b5a565b50507f15acc8c7b1b1cf9e6e0e60eb8d646b38ccdf634f90e8ad151c4bf83068761d8491506108d09060015b15610c0f575b610be081610bdb610bd5336110ed565b876113e5565b611de1565b6108c233610bf06107d28761135b565b80546001600160a01b0319166001600160a01b03909216919091179055565b610c2184610c1c336110b4565b6121c6565b610bc5565b50506108d0907f15acc8c7b1b1cf9e6e0e60eb8d646b38ccdf634f90e8ad151c4bf83068761d8492610bbf565b60405162461bcd60e51b8152602060048201526012602482015271125b9d985b1a59081858d8dbdd5b9d08125160721b6044820152606490fd5b34610142576040366003190112610142576004356001600160401b03811161014257610cbd90369060040161061c565b6024356001600160401b038111610142576109ca610994610ce292369060040161061c565b610cf06080610777336115bd565b610cfe600461078e33611126565b610d13816001610d0d33611126565b01611de1565b426005610d1f33611126565b01557fdd635a4cd84864e37e4479dbfc2ec667acfa473c83c8422a8ac9d9d07599b01c604051806108d0339482610dfb565b34610142576020366003190112610142576004356001600160401b03811161014257610d83602091369060040161061c565b6001600160a01b0390610d95906113a0565b5416604051908152f35b34610142576020610d95610db236610670565b6001600160a01b039291610dc59061135b565b906113e5565b346101425760003660031901126101425761029d610de7611479565b6040519182916020835260208301906102a1565b90602061031592818152019061016a565b346101425761029d610e25610e2036610120565b6115bd565b5160405191829160208352602083019061016a565b34610142576020610e4a36610120565b610e5e60001991610e59611479565b612385565b6040519114158152f35b60405190610e75826105ca565b600060c0836060815260606020820152606060408201526060808201528260808201528260a08201520152565b15610ea957565b60405162461bcd60e51b815260206004820152602160248201527f4f6e6c79206f776e65722063616e2063616c6c20746869732066756e6374696f6044820152603760f91b6064820152608490fd5b6040513d6000823e3d90fd5b15610f0b57565b60405162461bcd60e51b8152602060048201526016602482015275141c9bd99a5b1948191bd95cc81b9bdd08195e1a5cdd60521b6044820152606490fd5b9091610f606103159360408452604084019061016a565b91602081840391015261016a565b15610f7557565b60405162461bcd60e51b815260206004820152601060248201526f496e76616c696420757365726e616d6560801b6044820152606490fd5b90610fc060209282815194859201610147565b0190565b15610fcb57565b606460405162461bcd60e51b815260206004820152602060248201527f496e76616c696420646569642076616c696461746f72207369676e61747572656044820152fd5b1561101657565b60405162461bcd60e51b81526020600482015260166024820152752ab9b2b93730b6b29030b63932b0b23c903a30b5b2b760511b6044820152606490fd5b1561105b57565b60405162461bcd60e51b815260206004820152602b60248201527f4163636f756e7420494420616c7265616479206c696e6b656420746f20616e6f60448201526a1d1a195c881dd85b1b195d60aa1b6064820152608490fd5b6001600160a01b031660009081527fa4e036520d635b7a3426dd496f6fd877aafe26cc475712f9f416a83d265a9ec06020526040902090565b6001600160a01b031660009081527fa4e036520d635b7a3426dd496f6fd877aafe26cc475712f9f416a83d265a9ec16020526040902090565b6001600160a01b031660009081527fa4e036520d635b7a3426dd496f6fd877aafe26cc475712f9f416a83d265a9ebe6020526040902090565b6001600160401b0381116105e55760051b60200190565b90600182811c921680156111a6575b602083101461119057565b634e487b7160e01b600052602260045260246000fd5b91607f1691611185565b600092918154916111c083611176565b808352926001811690811561121657506001146111dc57505050565b60009081526020812093945091925b8383106111fc575060209250010190565b6001816020929493945483858701015201910191906111eb565b915050602093945060ff929192191683830152151560051b010190565b9061061a61124792604051938480926111b0565b03836105ea565b90815461125a8161115f565b9261126860405194856105ea565b818452602084019060005260206000206000915b8383106112895750505050565b6001602081926040516112a08161025081896111b0565b81520192019201919061127c565b604051906112bd6020836105ea565b600080835282815b8281106112d157505050565b8060606020809385010152016112c5565b906112ec8261115f565b6112f960405191826105ea565b828152809261130a601f199161115f565b019060005b82811061131b57505050565b80606060208093850101520161130f565b634e487b7160e01b600052603260045260246000fd5b80518210156113565760209160051b010190565b61132c565b6020611374918160405193828580945193849201610147565b81017fa4e036520d635b7a3426dd496f6fd877aafe26cc475712f9f416a83d265a9ec281520301902090565b60206113b9918160405193828580945193849201610147565b81017fa4e036520d635b7a3426dd496f6fd877aafe26cc475712f9f416a83d265a9ebf81520301902090565b6020906113ff928260405194838680955193849201610147565b82019081520301902090565b6040519060008051602061249983398151915254808352826020810160008051602061249983398151915260005260206000209260005b81811061145757505061061a925003836105ea565b84546001600160a01b0316835260019485019487945060209093019201611442565b6040519060008051602061245983398151915254808352826020810160008051602061245983398151915260005260206000209260005b8181106114c557505061061a925003836105ea565b84546001600160a01b03168352600194850194879450602090930192016114b0565b906040519182815491828252602082019060005260206000209260005b81811061151957505061061a925003836105ea565b84546001600160a01b0316835260019485019487945060209093019201611504565b600080516020612499833981519152548110156113565760008051602061249983398151915260005260206000200190600090565b600080516020612439833981519152548110156113565760008051602061243983398151915260005260206000200190600090565b80548210156113565760005260206000200190600090565b6115cf906115c9610e68565b50611126565b6103156116466006604051936115e4856105ca565b6040516115f58161025081856111b0565b855261160360018201611233565b6020860152611614600282016114e7565b60408601526116256003820161124e565b606086015260048101546080860152600581015460a0860152015460ff1690565b151560c0830152565b6000805160206124998339815191525490600160401b8210156105e557600182016000805160206124998339815191525560008051602061249983398151915254821015611356576000805160206124998339815191526000527fec71a264466db63fefec5c7d79d2a50b24e71d8d831560d366f0bcde48a21ca490910180546001600160a01b0319166001600160a01b03909216919091179055565b6000196116fb82610e59611479565b146117035750565b6000805160206124598339815191525490600160401b8210156105e557600182016000805160206124598339815191525560008051602061245983398151915254821015611356576000805160206124598339815191526000527f732a11aa9b876e93e6156ba9356f45a59d36f4e574a1660f5df7ed7d1c03f30990910180546001600160a01b0319166001600160a01b03909216919091179055565b6001600160a01b03916117b691610dc59061135b565b5416151590565b156117c457565b60405162461bcd60e51b815260206004820152602b60248201527f4163636f756e7420494420646f6573206e6f74206d61746368206f7220646f6560448201526a1cc81b9bdd08195e1a5cdd60aa1b6064820152608490fd5b818110611828575050565b6000815560010161181d565b634e487b7160e01b600052601160045260246000fd5b634e487b7160e01b600052600060045260246000fd5b61186a8154611176565b9081611874575050565b601f8211600114611886576000905550565b6118a861061a92826000526001601f6020600020920160051c8201910161181d565b600081815260208120918190559055565b6000198101919082116118c857565b611834565b9190601f81116118dc57505050565b61061a926000526020600020906020601f840160051c83019310611908575b601f0160051c019061181d565b90915081906118fb565b919091828114611a01576119268354611176565b6001600160401b0381116105e557611948816119428454611176565b846118cd565b600093601f821160011461198a5761197b929394829160009261197f575b50508160011b916000199060031b1c19161790565b9055565b015490503880611966565b61199e601f19831691600052602060002090565b946119ae84600052602060002090565b91815b8181106119e9575095836001959697106119d0575b505050811b019055565b015460001960f88460031b161c191690553880806119c6565b9192600180602092868b0154815501940192016119b1565b509050565b9190611a155761061a91611912565b61184a565b80548015611a82576000190190611a3182826115a5565b611a1557611a3f8154611176565b9081611a4a57505055565b601f8211600114611a5d57600090555055565b6118a8611a7f92826000526001601f6020600020920160051c8201910161181d565b55565b634e487b7160e01b600052603160045260246000fd5b8051156113565760200190565b908151811015611356570160200190565b80518015611b3f5760038110908115611c1b575b50611c155760005b8151811015611bb957611b06611af9611aeb8385611aa5565b516001600160f81b03191690565b6001600160f81b03191690565b600360fc1b8110159081611baa575b8115611b86575b8115611b62575b8115611b54575b8115611b46575b5015611b3f57600101611ad2565b5050600090565b601760f91b14905038611b31565b602d60f81b81149150611b2a565b9050606160f81b81101580611b78575b90611b23565b50603d60f91b811115611b72565b9050604160f81b81101580611b9c575b90611b1c565b50602d60f91b811115611b96565b603960f81b8111159150611b15565b50602d60f81b6001600160f81b0319611bd4611aeb84611a98565b1614908115611bed575b50611be857600190565b600090565b9050611c0e611af9611aeb602d60f81b93611c0881516118b9565b90611aa5565b1438611bde565b50600090565b601491501138611aca565b60405160208101917f19457468657265756d205369676e6564204d6573736167653a0a3332000000008352603c820152603c8152611c65605c826105ea565b5190206041825103611d24576020828101516040808501516060808701518351968752600090811a878701529286019390935291840191909152808052909160809060015afa1561074c57600051611cbc82612207565b611cd157611ccc610315926122a9565b6121f3565b60405162461bcd60e51b815260206004820152602560248201527f446569642076616c696461746f72207369676e617475726520616c7265616479604482015264081d5cd95960da1b6064820152608490fd5b60405162461bcd60e51b815260206004820152601860248201527f496e76616c6964207369676e6174757265206c656e67746800000000000000006044820152606490fd5b6001600160a01b0390611d7b906113a0565b541690565b15611d8757565b60405162461bcd60e51b815260206004820152601660248201527550726f66696c6520616c72656164792065786973747360501b6044820152606490fd5b60405190611dd46020836105ea565b6000808352366020840137565b91909182516001600160401b0381116105e557611e02816119428454611176565b6020601f8211600114611e3e57819061197b939495600092611e335750508160011b916000199060031b1c19161790565b015190503880611966565b601f19821690611e5384600052602060002090565b9160005b818110611e8e57509583600195969710611e7557505050811b019055565b015160001960f88460031b161c191690553880806119c6565b9192602060018192868b015181550194019201611e57565b815191600160401b83116105e5578154838355808410611f03575b506020611ed5910191600052602060002090565b6000915b838310611ee65750505050565b6001602082611ef783945186611de1565b01920192019190611ed9565b8260005283602060002091820191015b818110611f205750611ec1565b80611f2c600192611860565b01611f13565b90611f3e815183611de1565b611f4f602082015160018401611de1565b600282016040820151908151916001600160401b0383116105e557600160401b83116105e5576020908254848455808510612006575b500190600052602060002060005b838110611fe95750505050906006611fd660c084611fbb606061061a97015160038701611ea6565b6080810151600486015560a081015160058601550151151590565b91019060ff801983541691151516179055565b82516001600160a01b031682820155602090920191600101611f93565b61201d90846000528584600020918201910161181d565b38611f85565b60001981146118c85760010190565b9081610bf06120d3926120ce61061a96612058600461205087611126565b015415611d80565b61206f6001600160a01b036109e3610b3d866113a0565b61207b61098f84611ab6565b612083611dc5565b61208b6112ae565b9061209461060b565b928584526020840152604083015260608201524260808201524260a08201526120c060c0820160019052565b6120c985611126565b611f32565b6113a0565b6121246121007fa4e036520d635b7a3426dd496f6fd877aafe26cc475712f9f416a83d265a9ec454612023565b7fa4e036520d635b7a3426dd496f6fd877aafe26cc475712f9f416a83d265a9ec455565b6121756121517fa4e036520d635b7a3426dd496f6fd877aafe26cc475712f9f416a83d265a9ec554612023565b7fa4e036520d635b7a3426dd496f6fd877aafe26cc475712f9f416a83d265a9ec555565b61164f565b1561218157565b60405162461bcd60e51b815260206004820152601a60248201527f4163636f756e742049442063616e6e6f7420626520656d7074790000000000006044820152606490fd5b8054600160401b8110156105e5576121e3916001820181556115a5565b919091611a155761061a91611de1565b61220260001991610e59611479565b141590565b60008051602061243983398151915254906122218261115f565b9161222f60405193846105ea565b80835260008051602061243983398151915260009081527f6143f10953e4fbed1522382278ab1322081ef721720d4eac45504d08f839dd17602085015b838310612284575050505061220290600019926123cc565b60016020819260405161229b8161025081896111b0565b81520192019201919061226c565b9060008051602061243983398151915254600160401b8110156105e5578060016122e3920160008051602061243983398151915255611570565b611a155782516001600160401b0381116105e557612305816119428454611176565b6020601f821160011461233657819061197b939495600092611e335750508160011b916000199060031b1c19161790565b601f1982169061234b84600052602060002090565b9160005b81811061236d57509583600195969710611e7557505050811b019055565b9192602060018192868b01518155019401920161234f565b9060005b82518110156123c3576001600160a01b036123a48285611342565b51166001600160a01b038316146123bd57600101612389565b91505090565b50505060001990565b9060005b82518110156123c3576123e38184611342565b51604051612401602082816109b18183019687815193849201610147565b51902060405160208101906124288161241a8488610fad565b03601f1981018352826105ea565b519020146123bd576001016123d056fec48fc816533f30037aec7cfb5ae61f31811475ef705fc209cf71834561dd1813c48fc816533f30037aec7cfb5ae61f31811475ef705fc209cf71834561dd1812a4e036520d635b7a3426dd496f6fd877aafe26cc475712f9f416a83d265a9ec8a4e036520d635b7a3426dd496f6fd877aafe26cc475712f9f416a83d265a9ec3a164736f6c634300081c000a",
  "linkReferences": {},
  "deployedLinkReferences": {}
}