{
  "_format": "hh-sol-artifact-1",
  "contractName": "DEiDProfile",
  "sourceName": "contracts/core/DEiDProfile.sol",
  "abi": [
    {
      "inputs": [],
      "stateMutability": "nonpayable",
      "type": "constructor"
    },
    {
      "anonymous": false,
      "inputs": [
        {
          "indexed": true,
          "internalType": "address",
          "name": "owner",
          "type": "address"
        },
        {
          "indexed": false,
          "internalType": "string",
          "name": "username",
          "type": "string"
        },
        {
          "indexed": false,
          "internalType": "string",
          "name": "metadataURI",
          "type": "string"
        }
      ],
      "name": "ProfileCreated",
      "type": "event"
    },
    {
      "anonymous": false,
      "inputs": [
        {
          "indexed": true,
          "internalType": "address",
          "name": "owner",
          "type": "address"
        },
        {
          "indexed": false,
          "internalType": "string",
          "name": "metadataURI",
          "type": "string"
        }
      ],
      "name": "ProfileUpdated",
      "type": "event"
    },
    {
      "anonymous": false,
      "inputs": [
        {
          "indexed": true,
          "internalType": "address",
          "name": "owner",
          "type": "address"
        },
        {
          "indexed": false,
          "internalType": "string",
          "name": "platform",
          "type": "string"
        },
        {
          "indexed": false,
          "internalType": "string",
          "name": "accountId",
          "type": "string"
        }
      ],
      "name": "SocialAccountLinked",
      "type": "event"
    },
    {
      "anonymous": false,
      "inputs": [
        {
          "indexed": true,
          "internalType": "address",
          "name": "owner",
          "type": "address"
        },
        {
          "indexed": false,
          "internalType": "string",
          "name": "platform",
          "type": "string"
        },
        {
          "indexed": false,
          "internalType": "string",
          "name": "accountId",
          "type": "string"
        }
      ],
      "name": "SocialAccountUnlinked",
      "type": "event"
    },
    {
      "inputs": [
        {
          "internalType": "address",
          "name": "validator",
          "type": "address"
        }
      ],
      "name": "addValidator",
      "outputs": [],
      "stateMutability": "nonpayable",
      "type": "function"
    },
    {
      "inputs": [
        {
          "internalType": "string",
          "name": "username",
          "type": "string"
        },
        {
          "internalType": "string",
          "name": "metadataURI",
          "type": "string"
        },
        {
          "internalType": "bytes",
          "name": "deid_validator_signature",
          "type": "bytes"
        }
      ],
      "name": "createProfile",
      "outputs": [],
      "stateMutability": "nonpayable",
      "type": "function"
    },
    {
      "inputs": [
        {
          "internalType": "address",
          "name": "owner",
          "type": "address"
        }
      ],
      "name": "getProfile",
      "outputs": [
        {
          "components": [
            {
              "internalType": "string",
              "name": "username",
              "type": "string"
            },
            {
              "internalType": "string",
              "name": "metadataURI",
              "type": "string"
            },
            {
              "internalType": "address[]",
              "name": "wallets",
              "type": "address[]"
            },
            {
              "internalType": "string[]",
              "name": "socialAccounts",
              "type": "string[]"
            },
            {
              "internalType": "uint256",
              "name": "createdAt",
              "type": "uint256"
            },
            {
              "internalType": "uint256",
              "name": "lastUpdated",
              "type": "uint256"
            },
            {
              "internalType": "bool",
              "name": "isActive",
              "type": "bool"
            }
          ],
          "internalType": "struct DEiDProfileLibrary.Profile",
          "name": "",
          "type": "tuple"
        }
      ],
      "stateMutability": "view",
      "type": "function"
    },
    {
      "inputs": [
        {
          "internalType": "address",
          "name": "owner",
          "type": "address"
        }
      ],
      "name": "getSocialAccounts",
      "outputs": [
        {
          "internalType": "string[]",
          "name": "platforms",
          "type": "string[]"
        },
        {
          "internalType": "string[]",
          "name": "accountIds",
          "type": "string[]"
        }
      ],
      "stateMutability": "view",
      "type": "function"
    },
    {
      "inputs": [],
      "name": "getValidators",
      "outputs": [
        {
          "internalType": "address[]",
          "name": "",
          "type": "address[]"
        }
      ],
      "stateMutability": "view",
      "type": "function"
    },
    {
      "inputs": [
        {
          "internalType": "address",
          "name": "owner",
          "type": "address"
        }
      ],
      "name": "init",
      "outputs": [],
      "stateMutability": "nonpayable",
      "type": "function"
    },
    {
      "inputs": [
        {
          "internalType": "address",
          "name": "validator",
          "type": "address"
        }
      ],
      "name": "isValidator",
      "outputs": [
        {
          "internalType": "bool",
          "name": "",
          "type": "bool"
        }
      ],
      "stateMutability": "view",
      "type": "function"
    },
    {
      "inputs": [
        {
          "internalType": "string",
          "name": "platform",
          "type": "string"
        },
        {
          "internalType": "string",
          "name": "accountId",
          "type": "string"
        },
        {
          "internalType": "bytes",
          "name": "deid_validator_signature",
          "type": "bytes"
        }
      ],
      "name": "linkSocialAccount",
      "outputs": [],
      "stateMutability": "nonpayable",
      "type": "function"
    },
    {
      "inputs": [
        {
          "internalType": "address",
          "name": "addr",
          "type": "address"
        }
      ],
      "name": "resolveAddress",
      "outputs": [
        {
          "internalType": "string",
          "name": "",
          "type": "string"
        }
      ],
      "stateMutability": "view",
      "type": "function"
    },
    {
      "inputs": [
        {
          "internalType": "string",
          "name": "username",
          "type": "string"
        }
      ],
      "name": "resolveUsername",
      "outputs": [
        {
          "internalType": "address",
          "name": "",
          "type": "address"
        }
      ],
      "stateMutability": "view",
      "type": "function"
    },
    {
      "inputs": [
        {
          "internalType": "string",
          "name": "platform",
          "type": "string"
        },
        {
          "internalType": "string",
          "name": "accountId",
          "type": "string"
        }
      ],
      "name": "unlinkSocialAccount",
      "outputs": [],
      "stateMutability": "nonpayable",
      "type": "function"
    },
    {
      "inputs": [
        {
          "internalType": "string",
          "name": "metadataURI",
          "type": "string"
        },
        {
          "internalType": "bytes",
          "name": "deid_validator_signature",
          "type": "bytes"
        }
      ],
      "name": "updateProfile",
      "outputs": [],
      "stateMutability": "nonpayable",
      "type": "function"
    },
    {
      "inputs": [],
      "name": "withdraw",
      "outputs": [],
      "stateMutability": "nonpayable",
      "type": "function"
    },
    {
      "stateMutability": "payable",
      "type": "receive"
    }
  ],
  "bytecode": "0x60808060405234601557611d0c908161001b8239f35b600080fdfe6080604052600436101561001b575b361561001957600080fd5b005b60003560e01c806307029f91146100eb5780630f53a470146100e657806319ab453c146100e15780633ccfd60b146100dc5780633d840a23146100d7578063412738c8146100d25780634d238c8e146100cd57806354d58bd8146100c85780636eeb9b10146100c35780637d1febd4146100be578063b7ab4db5146100b9578063f81e8775146100b45763facd743b0361000e57610b40565b610b12565b610a9a565b610a4c565b610988565b6107e5565b6107ab565b6106a5565b6105a0565b610466565b6103cf565b6102ec565b6101e0565b6020906003190112610112576004356001600160a01b03811681036101125790565b600080fd5b60005b83811061012a5750506000910152565b818101518382015260200161011a565b9060209161015381518092818552858086019101610117565b601f01601f1916010190565b9080602083519182815201916020808360051b8301019401926000915b83831061018b57505050505090565b90919293946020806101a9600193601f19868203018752895161013a565b9701930193019193929061017c565b90916101cf6101dd9360408452604084019061015f565b91602081840391015261015f565b90565b34610112576101ee366100f0565b6101ff6101fa82610d5a565b610ebb565b9081519161020c83610dcc565b9261021a604051948561051a565b808452610229601f1991610dcc565b0160005b8181106102db57505060005b81518110156102c8576001906102a56102ac6102996102898760018060a01b03166000527fa4e036520d635b7a3426dd496f6fd877aafe26cc475712f9f416a83d265a9ec1602052604060002090565b6102938588610f65565b51610fc3565b60405192838092610e1d565b038261051a565b6102b68287610f65565b526102c18186610f65565b5001610239565b604051806102d78685836101b8565b0390f35b80606060208093880101520161022d565b346101125761030b6102fd366100f0565b610305610b6e565b506110ab565b6040516020815261034261032c835160e0602085015261010084019061013a565b6020840151838203601f1901604085015261013a565b91604081015192601f198382030160608401526020808551928381520194019060005b8181106103b0575050506102d760c061038f84956060850151601f1987830301608088015261015f565b92608081015160a086015260a081015182860152015160e084019015159052565b82516001600160a01b0316865260209586019590920191600101610365565b34610112576103dd366100f0565b600080516020611ce0833981519152546001600160a01b031661042b57600080516020611ce083398151915280546001600160a01b0319166001600160a01b0383161790556100199061118a565b60405162461bcd60e51b8152602060048201526013602482015272105b1c9958591e481a5b9a5d1a585b1a5e9959606a1b6044820152606490fd5b3461011257600036600319011261011257600080516020611ce08339815191525461049b906001600160a01b03163314610ba8565b600080808060018060a01b03600080516020611ce083398151915254164790829082156104da575b6001600160a01b031690f1156104d557005b610bfe565b6108fc91506104c3565b634e487b7160e01b600052604160045260246000fd5b60e081019081106001600160401b0382111761051557604052565b6104e4565b90601f801991011681019081106001600160401b0382111761051557604052565b6040519061054a60e08361051a565b565b81601f82011215610112576020813591016001600160401b0382116105155760405192610583601f8401601f19166020018561051a565b828452828201116101125781600092602092838601378301015290565b34610112576040366003190112610112576004356001600160401b038111610112576105d090369060040161054c565b6024356001600160401b038111610112576106386106137f853027f5b9329959bfd3fd59cb53e04145a91ff078a77a414715d1246de32a5f92369060040161054c565b61062a6080610621336110ab565b01511515610c0a565b604051918291339583610c4f565b0390a2005b6060600319820112610112576004356001600160401b03811161011257816106679160040161054c565b916024356001600160401b03811161011257826106869160040161054c565b91604435906001600160401b038211610112576101dd9160040161054c565b346101125761070a6107056106b93661063d565b6106cf6106ca849694959395611284565b610c74565b60405160208101906106fd60208288516106ec8187858d01610117565b81010301601f19810183528261051a565b5190206113df565b610cca565b6107256001600160a01b0361071e84611522565b1615610d15565b6080610730336110ab565b0151610766576106388161062a7f6b4494367229a908b0585b361e2871a21f8eb4cd852c02f55c9e06989f4bb2aa9385336118bd565b60405162461bcd60e51b815260206004820152601d60248201527f4164647265737320616c72656164792068617320612070726f66696c650000006044820152606490fd5b34610112576100196107bc366100f0565b600080516020611ce0833981519152546107e0906001600160a01b03163314610ba8565b61118a565b346101125761081c6107056107f93661063d565b60409492949391935160208101906106fd60208288516106ec8187858d01610117565b61082a6080610621336110ab565b80511561094e57610848600461083f33610d93565b01541515610c0a565b60009060208301825b61085a33610d5a565b548110156109215761087d6108778261087233610d5a565b611172565b50610ea0565b60208151910120855183201461089557600101610851565b50507f15acc8c7b1b1cf9e6e0e60eb8d646b38ccdf634f90e8ad151c4bf83068761d8491506106389060015b1561090a575b3360009081527fa4e036520d635b7a3426dd496f6fd877aafe26cc475712f9f416a83d265a9ec16020526040902061062a9082906109059087610fc3565b61160c565b61091c8461091733610d5a565b611a28565b6108c7565b5050610638907f15acc8c7b1b1cf9e6e0e60eb8d646b38ccdf634f90e8ad151c4bf83068761d84926108c1565b60405162461bcd60e51b8152602060048201526012602482015271125b9d985b1a59081858d8dbdd5b9d08125160721b6044820152606490fd5b34610112576040366003190112610112576004356001600160401b038111610112576109b890369060040161054c565b6024356001600160401b038111610112576107056106cf6109dd92369060040161054c565b6109eb6080610621336110ab565b6109f9600461083f33610d93565b610a0e816001610a0833610d93565b0161160c565b426005610a1a33610d93565b01557fdd635a4cd84864e37e4479dbfc2ec667acfa473c83c8422a8ac9d9d07599b01c60405180610638339482610b01565b34610112576020366003190112610112576004356001600160401b03811161011257610a7e602091369060040161054c565b6001600160a01b0390610a9090610f7e565b5416604051908152f35b3461011257600036600319011261011257610ab3610fe9565b60405180916020820160208352815180915260206040840192019060005b818110610adf575050500390f35b82516001600160a01b0316845285945060209384019390920191600101610ad1565b9060206101dd92818152019061013a565b34610112576102d7610b2b610b26366100f0565b6110ab565b5160405191829160208352602083019061013a565b34610112576020610b50366100f0565b610b6460001991610b5f610fe9565b611bec565b6040519114158152f35b60405190610b7b826104fa565b600060c0836060815260606020820152606060408201526060808201528260808201528260a08201520152565b15610baf57565b60405162461bcd60e51b815260206004820152602160248201527f4f6e6c79206f776e65722063616e2063616c6c20746869732066756e6374696f6044820152603760f91b6064820152608490fd5b6040513d6000823e3d90fd5b15610c1157565b60405162461bcd60e51b8152602060048201526016602482015275141c9bd99a5b1948191bd95cc81b9bdd08195e1a5cdd60521b6044820152606490fd5b9091610c666101dd9360408452604084019061013a565b91602081840391015261013a565b15610c7b57565b60405162461bcd60e51b815260206004820152601060248201526f496e76616c696420757365726e616d6560801b6044820152606490fd5b90610cc660209282815194859201610117565b0190565b15610cd157565b606460405162461bcd60e51b815260206004820152602060248201527f496e76616c696420646569642076616c696461746f72207369676e61747572656044820152fd5b15610d1c57565b60405162461bcd60e51b81526020600482015260166024820152752ab9b2b93730b6b29030b63932b0b23c903a30b5b2b760511b6044820152606490fd5b6001600160a01b031660009081527fa4e036520d635b7a3426dd496f6fd877aafe26cc475712f9f416a83d265a9ec06020526040902090565b6001600160a01b031660009081527fa4e036520d635b7a3426dd496f6fd877aafe26cc475712f9f416a83d265a9ebe6020526040902090565b6001600160401b0381116105155760051b60200190565b90600182811c92168015610e13575b6020831014610dfd57565b634e487b7160e01b600052602260045260246000fd5b91607f1691610df2565b60009291815491610e2d83610de3565b8083529260018116908115610e835750600114610e4957505050565b60009081526020812093945091925b838310610e69575060209250010190565b600181602092949394548385870101520191019190610e58565b915050602093945060ff929192191683830152151560051b010190565b9061054a610eb49260405193848092610e1d565b038361051a565b908154610ec781610dcc565b92610ed5604051948561051a565b818452602084019060005260206000206000915b838310610ef65750505050565b600160208192604051610f0d816102a58189610e1d565b815201920192019190610ee9565b60405190610f2a60208361051a565b600080835282815b828110610f3e57505050565b806060602080938501015201610f32565b634e487b7160e01b600052603260045260246000fd5b8051821015610f795760209160051b010190565b610f4f565b6020610f97918160405193828580945193849201610117565b81017fa4e036520d635b7a3426dd496f6fd877aafe26cc475712f9f416a83d265a9ebf81520301902090565b602090610fdd928260405194838680955193849201610117565b82019081520301902090565b60405190600080516020611cc0833981519152548083528260208101600080516020611cc083398151915260005260206000209260005b81811061103557505061054a9250038361051a565b84546001600160a01b0316835260019485019487945060209093019201611020565b906040519182815491828252602082019060005260206000209260005b81811061108957505061054a9250038361051a565b84546001600160a01b0316835260019485019487945060209093019201611074565b6110bd906110b7610b6e565b50610d93565b6101dd6111346006604051936110d2856104fa565b6040516110e3816102a58185610e1d565b85526110f160018201610ea0565b602086015261110260028201611057565b604086015261111360038201610ebb565b606086015260048101546080860152600581015460a0860152015460ff1690565b151560c0830152565b600080516020611ca083398151915254811015610f7957600080516020611ca083398151915260005260206000200190600090565b8054821015610f795760005260206000200190600090565b60001961119982610b5f610fe9565b146111a15750565b600080516020611cc083398151915254600160401b8110156105155760018101600080516020611cc0833981519152556000600080516020611cc083398151915254821015610f7957600080516020611cc083398151915290527f732a11aa9b876e93e6156ba9356f45a59d36f4e574a1660f5df7ed7d1c03f3090180546001600160a01b0319166001600160a01b03909216919091179055565b805115610f795760200190565b908151811015610f79570160200190565b634e487b7160e01b600052601160045260246000fd5b60001981019190821161127f57565b61125a565b8051801561130657600381109081156113d4575b506113ce5760005b8151811015611372576112d46112c76112b98385611249565b516001600160f81b03191690565b6001600160f81b03191690565b600360fc1b8110159081611363575b811561133f575b811561131b575b811561130d575b5015611306576001016112a0565b5050600090565b602d60f81b149050386112f8565b9050606160f81b81101580611331575b906112f1565b50603d60f91b81111561132b565b9050604160f81b81101580611355575b906112ea565b50602d60f91b81111561134f565b603960f81b81111591506112e3565b50602d60f81b6001600160f81b031961138d6112b98461123c565b16149081156113a6575b506113a157600190565b600090565b90506113c76112c76112b9602d60f81b936113c18151611270565b90611249565b1438611397565b50600090565b601491501138611298565b60405160208101917f19457468657265756d205369676e6564204d6573736167653a0a3332000000008352603c820152603c815261141e605c8261051a565b51902060418251036114dd576020828101516040808501516060808701518351968752600090811a878701529286019390935291840191909152808052909160809060015afa156104d55760005161147582611a6e565b61148a576114856101dd92611b10565b611a5a565b60405162461bcd60e51b815260206004820152602560248201527f446569642076616c696461746f72207369676e617475726520616c7265616479604482015264081d5cd95960da1b6064820152608490fd5b60405162461bcd60e51b815260206004820152601860248201527f496e76616c6964207369676e6174757265206c656e67746800000000000000006044820152606490fd5b6001600160a01b039061153490610f7e565b541690565b1561154057565b60405162461bcd60e51b815260206004820152601660248201527550726f66696c6520616c72656164792065786973747360501b6044820152606490fd5b6040519061158d60208361051a565b6000808352366020840137565b634e487b7160e01b600052600060045260246000fd5b8181106115bb575050565b600081556001016115b0565b9190601f81116115d657505050565b61054a926000526020600020906020601f840160051c83019310611602575b601f0160051c01906115b0565b90915081906115f5565b91909182516001600160401b038111610515576116338161162d8454610de3565b846115c7565b6020601f8211600114611674578190611665939495600092611669575b50508160011b916000199060031b1c19161790565b9055565b015190503880611650565b601f1982169061168984600052602060002090565b9160005b8181106116c5575095836001959697106116ac575b505050811b019055565b015160001960f88460031b161c191690553880806116a2565b9192602060018192868b01518155019401920161168d565b815191600160401b831161051557815483835580841061173a575b50602061170c910191600052602060002090565b6000915b83831061171d5750505050565b600160208261172e8394518661160c565b01920192019190611710565b8260005283602060002091820191015b81811061175757506116f8565b8061176460019254610de3565b80611771575b500161174a565b601f811183146117875750600081555b3861176a565b6117ab9083601f61179d85600052602060002090565b920160051c820191016115b0565b60008181526020812081835555611781565b906117c981518361160c565b6117da60208201516001840161160c565b600282016040820151908151916001600160401b03831161051557600160401b8311610515576020908254848455808510611891575b500190600052602060002060005b838110611874575050505090600661186160c084611846606061054a970151600387016116dd565b6080810151600486015560a081015160058601550151151590565b91019060ff801983541691151516179055565b82516001600160a01b03168282015560209092019160010161181e565b6118a89084600052858460002091820191016115b0565b38611810565b600019811461127f5760010190565b9061196790611962611986946118df60046118d787610d93565b015415611539565b6119036001600160a01b0361071e6118f686610f7e565b546001600160a01b031690565b61190f6106ca84611284565b61191761157e565b61191f610f1b565b9061192861053b565b928584526020840152604083015260608201524260808201524260a082015261195460c0820160019052565b61195d85610d93565b6117bd565b610f7e565b80546001600160a01b0319166001600160a01b03909216919091179055565b6119d76119b37fa4e036520d635b7a3426dd496f6fd877aafe26cc475712f9f416a83d265a9ec2546118ae565b7fa4e036520d635b7a3426dd496f6fd877aafe26cc475712f9f416a83d265a9ec255565b61054a611a047fa4e036520d635b7a3426dd496f6fd877aafe26cc475712f9f416a83d265a9ec3546118ae565b7fa4e036520d635b7a3426dd496f6fd877aafe26cc475712f9f416a83d265a9ec355565b8054600160401b81101561051557611a4591600182018155611172565b919091611a555761054a9161160c565b61159a565b611a6960001991610b5f610fe9565b141590565b600080516020611ca08339815191525490611a8882610dcc565b91611a96604051938461051a565b808352600080516020611ca083398151915260009081527f6143f10953e4fbed1522382278ab1322081ef721720d4eac45504d08f839dd17602085015b838310611aeb5750505050611a699060001992611c33565b600160208192604051611b02816102a58189610e1d565b815201920192019190611ad3565b90600080516020611ca083398151915254600160401b81101561051557806001611b4a9201600080516020611ca08339815191525561113d565b611a555782516001600160401b03811161051557611b6c8161162d8454610de3565b6020601f8211600114611b9d5781906116659394956000926116695750508160011b916000199060031b1c19161790565b601f19821690611bb284600052602060002090565b9160005b818110611bd4575095836001959697106116ac57505050811b019055565b9192602060018192868b015181550194019201611bb6565b9060005b8251811015611c2a576001600160a01b03611c0b8285610f65565b51166001600160a01b03831614611c2457600101611bf0565b91505090565b50505060001990565b9060005b8251811015611c2a57611c4a8184610f65565b51604051611c68602082816106ec8183019687815193849201610117565b5190206040516020810190611c8f81611c818488610cb3565b03601f19810183528261051a565b51902014611c2457600101611c3756fec48fc816533f30037aec7cfb5ae61f31811475ef705fc209cf71834561dd1813c48fc816533f30037aec7cfb5ae61f31811475ef705fc209cf71834561dd1812a4e036520d635b7a3426dd496f6fd877aafe26cc475712f9f416a83d265a9ec6a164736f6c634300081c000a",
  "linkReferences": {},
  "deployedLinkReferences": {}
}