{
  "_format": "hh-sol-artifact-1",
  "contractName": "DEiDProfile",
  "sourceName": "contracts/core/DEiDProfile.sol",
  "abi": [
    {
      "inputs": [],
      "stateMutability": "nonpayable",
      "type": "constructor"
    },
    {
      "anonymous": false,
      "inputs": [
        {
          "indexed": true,
          "internalType": "address",
          "name": "owner",
          "type": "address"
        },
        {
          "indexed": false,
          "internalType": "string",
          "name": "username",
          "type": "string"
        },
        {
          "indexed": false,
          "internalType": "string",
          "name": "metadataURI",
          "type": "string"
        }
      ],
      "name": "ProfileCreated",
      "type": "event"
    },
    {
      "anonymous": false,
      "inputs": [
        {
          "indexed": true,
          "internalType": "address",
          "name": "owner",
          "type": "address"
        },
        {
          "indexed": false,
          "internalType": "string",
          "name": "metadataURI",
          "type": "string"
        }
      ],
      "name": "ProfileUpdated",
      "type": "event"
    },
    {
      "anonymous": false,
      "inputs": [
        {
          "indexed": true,
          "internalType": "address",
          "name": "owner",
          "type": "address"
        },
        {
          "indexed": false,
          "internalType": "string",
          "name": "platform",
          "type": "string"
        },
        {
          "indexed": false,
          "internalType": "string",
          "name": "accountId",
          "type": "string"
        }
      ],
      "name": "SocialAccountLinked",
      "type": "event"
    },
    {
      "anonymous": false,
      "inputs": [
        {
          "indexed": true,
          "internalType": "address",
          "name": "owner",
          "type": "address"
        },
        {
          "indexed": false,
          "internalType": "string",
          "name": "platform",
          "type": "string"
        },
        {
          "indexed": false,
          "internalType": "string",
          "name": "accountId",
          "type": "string"
        }
      ],
      "name": "SocialAccountUnlinked",
      "type": "event"
    },
    {
      "inputs": [
        {
          "internalType": "address",
          "name": "validator",
          "type": "address"
        }
      ],
      "name": "addValidator",
      "outputs": [],
      "stateMutability": "nonpayable",
      "type": "function"
    },
    {
      "inputs": [
        {
          "internalType": "string",
          "name": "username",
          "type": "string"
        },
        {
          "internalType": "string",
          "name": "metadataURI",
          "type": "string"
        },
        {
          "internalType": "bytes",
          "name": "deid_validator_signature",
          "type": "bytes"
        }
      ],
      "name": "createProfile",
      "outputs": [],
      "stateMutability": "nonpayable",
      "type": "function"
    },
    {
      "inputs": [
        {
          "internalType": "address",
          "name": "owner",
          "type": "address"
        }
      ],
      "name": "getProfile",
      "outputs": [
        {
          "components": [
            {
              "internalType": "string",
              "name": "username",
              "type": "string"
            },
            {
              "internalType": "string",
              "name": "metadataURI",
              "type": "string"
            },
            {
              "internalType": "address[]",
              "name": "wallets",
              "type": "address[]"
            },
            {
              "internalType": "string[]",
              "name": "socialAccounts",
              "type": "string[]"
            },
            {
              "internalType": "uint256",
              "name": "createdAt",
              "type": "uint256"
            },
            {
              "internalType": "uint256",
              "name": "lastUpdated",
              "type": "uint256"
            },
            {
              "internalType": "bool",
              "name": "isActive",
              "type": "bool"
            }
          ],
          "internalType": "struct DEiDProfileLibrary.Profile",
          "name": "",
          "type": "tuple"
        }
      ],
      "stateMutability": "view",
      "type": "function"
    },
    {
      "inputs": [
        {
          "internalType": "address",
          "name": "owner",
          "type": "address"
        }
      ],
      "name": "getSocialAccounts",
      "outputs": [
        {
          "internalType": "string[]",
          "name": "platforms",
          "type": "string[]"
        },
        {
          "internalType": "string[]",
          "name": "accountIds",
          "type": "string[]"
        }
      ],
      "stateMutability": "view",
      "type": "function"
    },
    {
      "inputs": [],
      "name": "getValidators",
      "outputs": [
        {
          "internalType": "address[]",
          "name": "",
          "type": "address[]"
        }
      ],
      "stateMutability": "view",
      "type": "function"
    },
    {
      "inputs": [
        {
          "internalType": "string",
          "name": "platform",
          "type": "string"
        },
        {
          "internalType": "string",
          "name": "accountId",
          "type": "string"
        }
      ],
      "name": "getWalletBySocialAccount",
      "outputs": [
        {
          "internalType": "address",
          "name": "",
          "type": "address"
        }
      ],
      "stateMutability": "view",
      "type": "function"
    },
    {
      "inputs": [
        {
          "internalType": "address",
          "name": "owner",
          "type": "address"
        }
      ],
      "name": "init",
      "outputs": [],
      "stateMutability": "nonpayable",
      "type": "function"
    },
    {
      "inputs": [
        {
          "internalType": "string",
          "name": "platform",
          "type": "string"
        },
        {
          "internalType": "string",
          "name": "accountId",
          "type": "string"
        }
      ],
      "name": "isAccountIdLinked",
      "outputs": [
        {
          "internalType": "bool",
          "name": "",
          "type": "bool"
        }
      ],
      "stateMutability": "view",
      "type": "function"
    },
    {
      "inputs": [
        {
          "internalType": "address",
          "name": "validator",
          "type": "address"
        }
      ],
      "name": "isValidator",
      "outputs": [
        {
          "internalType": "bool",
          "name": "",
          "type": "bool"
        }
      ],
      "stateMutability": "view",
      "type": "function"
    },
    {
      "inputs": [
        {
          "internalType": "string",
          "name": "platform",
          "type": "string"
        },
        {
          "internalType": "string",
          "name": "accountId",
          "type": "string"
        },
        {
          "internalType": "bytes",
          "name": "deid_validator_signature",
          "type": "bytes"
        }
      ],
      "name": "linkSocialAccount",
      "outputs": [],
      "stateMutability": "nonpayable",
      "type": "function"
    },
    {
      "inputs": [
        {
          "internalType": "address",
          "name": "addr",
          "type": "address"
        }
      ],
      "name": "resolveAddress",
      "outputs": [
        {
          "internalType": "string",
          "name": "",
          "type": "string"
        }
      ],
      "stateMutability": "view",
      "type": "function"
    },
    {
      "inputs": [
        {
          "internalType": "string",
          "name": "username",
          "type": "string"
        }
      ],
      "name": "resolveUsername",
      "outputs": [
        {
          "internalType": "address",
          "name": "",
          "type": "address"
        }
      ],
      "stateMutability": "view",
      "type": "function"
    },
    {
      "inputs": [
        {
          "internalType": "string",
          "name": "platform",
          "type": "string"
        },
        {
          "internalType": "string",
          "name": "accountId",
          "type": "string"
        }
      ],
      "name": "unlinkSocialAccount",
      "outputs": [],
      "stateMutability": "nonpayable",
      "type": "function"
    },
    {
      "inputs": [
        {
          "internalType": "string",
          "name": "metadataURI",
          "type": "string"
        },
        {
          "internalType": "bytes",
          "name": "deid_validator_signature",
          "type": "bytes"
        }
      ],
      "name": "updateProfile",
      "outputs": [],
      "stateMutability": "nonpayable",
      "type": "function"
    },
    {
      "inputs": [],
      "name": "withdraw",
      "outputs": [],
      "stateMutability": "nonpayable",
      "type": "function"
    },
    {
      "stateMutability": "payable",
      "type": "receive"
    }
  ],
  "bytecode": "0x608080604052346015576121ec908161001b8239f35b600080fdfe6080604052600436101561001b575b361561001957600080fd5b005b60003560e01c806307029f911461010b5780630f53a4701461010657806319ab453c14610101578063305bc38e146100fc5780633ccfd60b146100f75780633d840a23146100f2578063412738c8146100ed5780634d238c8e146100e857806354d58bd8146100e35780636eeb9b10146100de5780637d1febd4146100d9578063a9059523146100d4578063b7ab4db5146100cf578063f81e8775146100ca5763facd743b0361000e57610d16565b610ce8565b610c70565b610c44565b610bf6565b610b32565b61094f565b610915565b61080f565b6105fb565b61057d565b61055a565b6103bd565b6102da565b610200565b6020906003190112610132576004356001600160a01b03811681036101325790565b600080fd5b60005b83811061014a5750506000910152565b818101518382015260200161013a565b9060209161017381518092818552858086019101610137565b601f01601f1916010190565b9080602083519182815201916020808360051b8301019401926000915b8383106101ab57505050505090565b90919293946020806101c9600193601f19868203018752895161015a565b9701930193019193929061019c565b90916101ef6101fd9360408452604084019061017f565b91602081840391015261017f565b90565b346101325761020e36610110565b61021f61021a82610f90565b61112a565b9081519161022c8361103b565b9261023a604051948561048a565b808452610249601f199161103b565b0160005b8181106102c957505060005b81518110156102b65760019061029361029a61028761027787610fc9565b61028185886111d4565b51611277565b6040519283809261108c565b038261048a565b6102a482876111d4565b526102af81866111d4565b5001610259565b604051806102c58685836101d8565b0390f35b80606060208093880101520161024d565b34610132576102f96102eb36610110565b6102f3610d44565b5061135f565b6040516020815261033061031a835160e0602085015261010084019061015a565b6020840151838203601f1901604085015261015a565b91604081015192601f198382030160608401526020808551928381520194019060005b81811061039e575050506102c560c061037d84956060850151601f1987830301608088015261017f565b92608081015160a086015260a081015182860152015160e084019015159052565b82516001600160a01b0316865260209586019590920191600101610353565b34610132576103cb36610110565b6000805160206121a0833981519152546001600160a01b0316610419576000805160206121a083398151915280546001600160a01b0319166001600160a01b0383161790556100199061143e565b60405162461bcd60e51b8152602060048201526013602482015272105b1c9958591e481a5b9a5d1a585b1a5e9959606a1b6044820152606490fd5b634e487b7160e01b600052604160045260246000fd5b60e081019081106001600160401b0382111761048557604052565b610454565b90601f801991011681019081106001600160401b0382111761048557604052565b604051906104ba60e08361048a565b565b81601f82011215610132576020813591016001600160401b03821161048557604051926104f3601f8401601f19166020018561048a565b828452828201116101325781600092602092838601378301015290565b906040600319830112610132576004356001600160401b038111610132578261053b916004016104bc565b91602435906001600160401b038211610132576101fd916004016104bc565b3461013257602061057361056d36610510565b906114f0565b6040519015158152f35b34610132576000366003190112610132576000805160206121a0833981519152546105b2906001600160a01b03163314610d7e565b600080808060018060a01b036000805160206121a083398151915254164790829082156105f1575b6001600160a01b031690f1156105ec57005b610dd4565b6108fc91506105da565b346101325761060936610510565b61062060806106173361135f565b01511515610de0565b610637600461062e33611002565b01541515610de0565b61066861065461064f61064933610fc9565b85611277565b61110f565b60208151910120825160208401201461150d565b61068261067d61067733610fc9565b84611277565b6115b0565b6106a7610697610691846111ed565b83611277565b80546001600160a01b0319169055565b602082019060005b6106b833610f90565b5481101561077a576106db6106d5826106d033610f90565b611426565b5061110f565b6020815191012084518420146106f3576001016106af565b7f853027f5b9329959bfd3fd59cb53e04145a91ff078a77a414715d1246de32a5f9250906107566107759261075061074561072d33610f90565b61073f61073933610f90565b54611609565b90611426565b50916106d033610f90565b90611756565b61076761076233610f90565b61176a565b604051918291339583610e25565b0390a2005b507f853027f5b9329959bfd3fd59cb53e04145a91ff078a77a414715d1246de32a5f915061077590610767565b6060600319820112610132576004356001600160401b03811161013257816107d1916004016104bc565b916024356001600160401b03811161013257826107f0916004016104bc565b91604435906001600160401b038211610132576101fd916004016104bc565b346101325761087461086f610823366107a7565b610839610834849694959395611806565b610e4a565b604051602081019061086760208288516108568187858d01610137565b81010301601f19810183528261048a565b519020611976565b610ea0565b61088f6001600160a01b0361088884611ab9565b1615610eeb565b608061089a3361135f565b01516108d057610775816107677f6b4494367229a908b0585b361e2871a21f8eb4cd852c02f55c9e06989f4bb2aa938533611d82565b60405162461bcd60e51b815260206004820152601d60248201527f4164647265737320616c72656164792068617320612070726f66696c650000006044820152606490fd5b346101325761001961092636610110565b6000805160206121a08339815191525461094a906001600160a01b03163314610d7e565b61143e565b346101325761098661086f610963366107a7565b604094929493919351602081019061086760208288516108568187858d01610137565b61099961099382846114f0565b15610f30565b6109a760806106173361135f565b805115610af8576109bc600461062e33611002565b6109c881511515611ec1565b6109f66001600160a01b036109ef6109e2610649866111ed565b546001600160a01b031690565b1615610f30565b60009060208301825b610a0833610f90565b54811015610acb57610a206106d5826106d033610f90565b602081519101208551832014610a38576001016109ff565b50507f15acc8c7b1b1cf9e6e0e60eb8d646b38ccdf634f90e8ad151c4bf83068761d8491506107759060015b15610ab4575b610a8581610a80610a7a33610fc9565b87611277565b611b31565b61076733610a95610677876111ed565b80546001600160a01b0319166001600160a01b03909216919091179055565b610ac684610ac133610f90565b611f0d565b610a6a565b5050610775907f15acc8c7b1b1cf9e6e0e60eb8d646b38ccdf634f90e8ad151c4bf83068761d8492610a64565b60405162461bcd60e51b8152602060048201526012602482015271125b9d985b1a59081858d8dbdd5b9d08125160721b6044820152606490fd5b34610132576040366003190112610132576004356001600160401b03811161013257610b629036906004016104bc565b6024356001600160401b0381116101325761086f610839610b879236906004016104bc565b610b9560806106173361135f565b610ba3600461062e33611002565b610bb8816001610bb233611002565b01611b31565b426005610bc433611002565b01557fdd635a4cd84864e37e4479dbfc2ec667acfa473c83c8422a8ac9d9d07599b01c60405180610775339482610cd7565b34610132576020366003190112610132576004356001600160401b03811161013257610c2860209136906004016104bc565b6001600160a01b0390610c3a90611232565b5416604051908152f35b34610132576020610c3a610c5736610510565b6001600160a01b039291610c6a906111ed565b90611277565b3461013257600036600319011261013257610c8961129d565b60405180916020820160208352815180915260206040840192019060005b818110610cb5575050500390f35b82516001600160a01b0316845285945060209384019390920191600101610ca7565b9060206101fd92818152019061015a565b34610132576102c5610d01610cfc36610110565b61135f565b5160405191829160208352602083019061015a565b34610132576020610d2636610110565b610d3a60001991610d3561129d565b6120cc565b6040519114158152f35b60405190610d518261046a565b600060c0836060815260606020820152606060408201526060808201528260808201528260a08201520152565b15610d8557565b60405162461bcd60e51b815260206004820152602160248201527f4f6e6c79206f776e65722063616e2063616c6c20746869732066756e6374696f6044820152603760f91b6064820152608490fd5b6040513d6000823e3d90fd5b15610de757565b60405162461bcd60e51b8152602060048201526016602482015275141c9bd99a5b1948191bd95cc81b9bdd08195e1a5cdd60521b6044820152606490fd5b9091610e3c6101fd9360408452604084019061015a565b91602081840391015261015a565b15610e5157565b60405162461bcd60e51b815260206004820152601060248201526f496e76616c696420757365726e616d6560801b6044820152606490fd5b90610e9c60209282815194859201610137565b0190565b15610ea757565b606460405162461bcd60e51b815260206004820152602060248201527f496e76616c696420646569642076616c696461746f72207369676e61747572656044820152fd5b15610ef257565b60405162461bcd60e51b81526020600482015260166024820152752ab9b2b93730b6b29030b63932b0b23c903a30b5b2b760511b6044820152606490fd5b15610f3757565b60405162461bcd60e51b815260206004820152602b60248201527f4163636f756e7420494420616c7265616479206c696e6b656420746f20616e6f60448201526a1d1a195c881dd85b1b195d60aa1b6064820152608490fd5b6001600160a01b031660009081527fa4e036520d635b7a3426dd496f6fd877aafe26cc475712f9f416a83d265a9ec06020526040902090565b6001600160a01b031660009081527fa4e036520d635b7a3426dd496f6fd877aafe26cc475712f9f416a83d265a9ec16020526040902090565b6001600160a01b031660009081527fa4e036520d635b7a3426dd496f6fd877aafe26cc475712f9f416a83d265a9ebe6020526040902090565b6001600160401b0381116104855760051b60200190565b90600182811c92168015611082575b602083101461106c57565b634e487b7160e01b600052602260045260246000fd5b91607f1691611061565b6000929181549161109c83611052565b80835292600181169081156110f257506001146110b857505050565b60009081526020812093945091925b8383106110d8575060209250010190565b6001816020929493945483858701015201910191906110c7565b915050602093945060ff929192191683830152151560051b010190565b906104ba611123926040519384809261108c565b038361048a565b9081546111368161103b565b92611144604051948561048a565b818452602084019060005260206000206000915b8383106111655750505050565b60016020819260405161117c81610293818961108c565b815201920192019190611158565b6040519061119960208361048a565b600080835282815b8281106111ad57505050565b8060606020809385010152016111a1565b634e487b7160e01b600052603260045260246000fd5b80518210156111e85760209160051b010190565b6111be565b6020611206918160405193828580945193849201610137565b81017fa4e036520d635b7a3426dd496f6fd877aafe26cc475712f9f416a83d265a9ec281520301902090565b602061124b918160405193828580945193849201610137565b81017fa4e036520d635b7a3426dd496f6fd877aafe26cc475712f9f416a83d265a9ebf81520301902090565b602090611291928260405194838680955193849201610137565b82019081520301902090565b604051906000805160206121c08339815191525480835282602081016000805160206121c083398151915260005260206000209260005b8181106112e95750506104ba9250038361048a565b84546001600160a01b03168352600194850194879450602090930192016112d4565b906040519182815491828252602082019060005260206000209260005b81811061133d5750506104ba9250038361048a565b84546001600160a01b0316835260019485019487945060209093019201611328565b6113719061136b610d44565b50611002565b6101fd6113e86006604051936113868561046a565b60405161139781610293818561108c565b85526113a56001820161110f565b60208601526113b66002820161130b565b60408601526113c76003820161112a565b606086015260048101546080860152600581015460a0860152015460ff1690565b151560c0830152565b600080516020612180833981519152548110156111e85760008051602061218083398151915260005260206000200190600090565b80548210156111e85760005260206000200190600090565b60001961144d82610d3561129d565b146114555750565b6000805160206121c083398151915254600160401b81101561048557600181016000805160206121c08339815191525560006000805160206121c0833981519152548210156111e8576000805160206121c083398151915290527f732a11aa9b876e93e6156ba9356f45a59d36f4e574a1660f5df7ed7d1c03f3090180546001600160a01b0319166001600160a01b03909216919091179055565b6001600160a01b039161150691610c6a906111ed565b5416151590565b1561151457565b60405162461bcd60e51b815260206004820152602b60248201527f4163636f756e7420494420646f6573206e6f74206d61746368206f7220646f6560448201526a1cc81b9bdd08195e1a5cdd60aa1b6064820152608490fd5b818110611578575050565b6000815560010161156d565b634e487b7160e01b600052601160045260246000fd5b634e487b7160e01b600052600060045260246000fd5b6115ba8154611052565b90816115c4575050565b601f82116001146115d6576000905550565b6115f86104ba92826000526001601f6020600020920160051c8201910161156d565b600081815260208120918190559055565b60001981019190821161161857565b611584565b9190601f811161162c57505050565b6104ba926000526020600020906020601f840160051c83019310611658575b601f0160051c019061156d565b909150819061164b565b919091828114611751576116768354611052565b6001600160401b03811161048557611698816116928454611052565b8461161d565b600093601f82116001146116da576116cb92939482916000926116cf575b50508160011b916000199060031b1c19161790565b9055565b0154905038806116b6565b6116ee601f19831691600052602060002090565b946116fe84600052602060002090565b91815b81811061173957509583600195969710611720575b505050811b019055565b015460001960f88460031b161c19169055388080611716565b9192600180602092868b015481550194019201611701565b509050565b9190611765576104ba91611662565b61159a565b805480156117d25760001901906117818282611426565b6117655761178f8154611052565b908161179a57505055565b601f82116001146117ad57600090555055565b6115f86117cf92826000526001601f6020600020920160051c8201910161156d565b55565b634e487b7160e01b600052603160045260246000fd5b8051156111e85760200190565b9081518110156111e8570160200190565b8051801561188f576003811090811561196b575b506119655760005b81518110156119095761185661184961183b83856117f5565b516001600160f81b03191690565b6001600160f81b03191690565b600360fc1b81101590816118fa575b81156118d6575b81156118b2575b81156118a4575b8115611896575b501561188f57600101611822565b5050600090565b601760f91b14905038611881565b602d60f81b8114915061187a565b9050606160f81b811015806118c8575b90611873565b50603d60f91b8111156118c2565b9050604160f81b811015806118ec575b9061186c565b50602d60f91b8111156118e6565b603960f81b8111159150611865565b50602d60f81b6001600160f81b031961192461183b846117e8565b161490811561193d575b5061193857600190565b600090565b905061195e61184961183b602d60f81b936119588151611609565b906117f5565b143861192e565b50600090565b60149150113861181a565b60405160208101917f19457468657265756d205369676e6564204d6573736167653a0a3332000000008352603c820152603c81526119b5605c8261048a565b5190206041825103611a74576020828101516040808501516060808701518351968752600090811a878701529286019390935291840191909152808052909160809060015afa156105ec57600051611a0c82611f4e565b611a2157611a1c6101fd92611ff0565b611f3a565b60405162461bcd60e51b815260206004820152602560248201527f446569642076616c696461746f72207369676e617475726520616c7265616479604482015264081d5cd95960da1b6064820152608490fd5b60405162461bcd60e51b815260206004820152601860248201527f496e76616c6964207369676e6174757265206c656e67746800000000000000006044820152606490fd5b6001600160a01b0390611acb90611232565b541690565b15611ad757565b60405162461bcd60e51b815260206004820152601660248201527550726f66696c6520616c72656164792065786973747360501b6044820152606490fd5b60405190611b2460208361048a565b6000808352366020840137565b91909182516001600160401b03811161048557611b52816116928454611052565b6020601f8211600114611b8e5781906116cb939495600092611b835750508160011b916000199060031b1c19161790565b0151905038806116b6565b601f19821690611ba384600052602060002090565b9160005b818110611bde57509583600195969710611bc557505050811b019055565b015160001960f88460031b161c19169055388080611716565b9192602060018192868b015181550194019201611ba7565b815191600160401b8311610485578154838355808410611c53575b506020611c25910191600052602060002090565b6000915b838310611c365750505050565b6001602082611c4783945186611b31565b01920192019190611c29565b8260005283602060002091820191015b818110611c705750611c11565b80611c7c6001926115b0565b01611c63565b90611c8e815183611b31565b611c9f602082015160018401611b31565b600282016040820151908151916001600160401b03831161048557600160401b8311610485576020908254848455808510611d56575b500190600052602060002060005b838110611d395750505050906006611d2660c084611d0b60606104ba97015160038701611bf6565b6080810151600486015560a081015160058601550151151590565b91019060ff801983541691151516179055565b82516001600160a01b031682820155602090920191600101611ce3565b611d6d90846000528584600020918201910161156d565b38611cd5565b60001981146116185760010190565b90610a9590611e1a611e1f94611da46004611d9c87611002565b015415611ad0565b611dbb6001600160a01b036108886109e286611232565b611dc761083484611806565b611dcf611b15565b611dd761118a565b90611de06104ab565b928584526020840152604083015260608201524260808201524260a0820152611e0c60c0820160019052565b611e1585611002565b611c82565b611232565b611e70611e4c7fa4e036520d635b7a3426dd496f6fd877aafe26cc475712f9f416a83d265a9ec354611d73565b7fa4e036520d635b7a3426dd496f6fd877aafe26cc475712f9f416a83d265a9ec355565b6104ba611e9d7fa4e036520d635b7a3426dd496f6fd877aafe26cc475712f9f416a83d265a9ec454611d73565b7fa4e036520d635b7a3426dd496f6fd877aafe26cc475712f9f416a83d265a9ec455565b15611ec857565b60405162461bcd60e51b815260206004820152601a60248201527f4163636f756e742049442063616e6e6f7420626520656d7074790000000000006044820152606490fd5b8054600160401b81101561048557611f2a91600182018155611426565b919091611765576104ba91611b31565b611f4960001991610d3561129d565b141590565b6000805160206121808339815191525490611f688261103b565b91611f76604051938461048a565b80835260008051602061218083398151915260009081527f6143f10953e4fbed1522382278ab1322081ef721720d4eac45504d08f839dd17602085015b838310611fcb5750505050611f499060001992612113565b600160208192604051611fe281610293818961108c565b815201920192019190611fb3565b9060008051602061218083398151915254600160401b8110156104855780600161202a9201600080516020612180833981519152556113f1565b6117655782516001600160401b0381116104855761204c816116928454611052565b6020601f821160011461207d5781906116cb939495600092611b835750508160011b916000199060031b1c19161790565b601f1982169061209284600052602060002090565b9160005b8181106120b457509583600195969710611bc557505050811b019055565b9192602060018192868b015181550194019201612096565b9060005b825181101561210a576001600160a01b036120eb82856111d4565b51166001600160a01b03831614612104576001016120d0565b91505090565b50505060001990565b9060005b825181101561210a5761212a81846111d4565b51604051612148602082816108568183019687815193849201610137565b519020604051602081019061216f816121618488610e89565b03601f19810183528261048a565b519020146121045760010161211756fec48fc816533f30037aec7cfb5ae61f31811475ef705fc209cf71834561dd1813a4e036520d635b7a3426dd496f6fd877aafe26cc475712f9f416a83d265a9ec7c48fc816533f30037aec7cfb5ae61f31811475ef705fc209cf71834561dd1812a164736f6c634300081c000a",
  "linkReferences": {},
  "deployedLinkReferences": {}
}