{
  "_format": "hh-sol-artifact-1",
  "contractName": "BadgeSystem",
  "sourceName": "contracts/verification/BadgeSystem.sol",
  "abi": [
    {
      "inputs": [],
      "stateMutability": "nonpayable",
      "type": "constructor"
    },
    {
      "inputs": [
        {
          "internalType": "address",
          "name": "sender",
          "type": "address"
        },
        {
          "internalType": "uint256",
          "name": "tokenId",
          "type": "uint256"
        },
        {
          "internalType": "address",
          "name": "owner",
          "type": "address"
        }
      ],
      "name": "ERC721IncorrectOwner",
      "type": "error"
    },
    {
      "inputs": [
        {
          "internalType": "address",
          "name": "operator",
          "type": "address"
        },
        {
          "internalType": "uint256",
          "name": "tokenId",
          "type": "uint256"
        }
      ],
      "name": "ERC721InsufficientApproval",
      "type": "error"
    },
    {
      "inputs": [
        {
          "internalType": "address",
          "name": "approver",
          "type": "address"
        }
      ],
      "name": "ERC721InvalidApprover",
      "type": "error"
    },
    {
      "inputs": [
        {
          "internalType": "address",
          "name": "operator",
          "type": "address"
        }
      ],
      "name": "ERC721InvalidOperator",
      "type": "error"
    },
    {
      "inputs": [
        {
          "internalType": "address",
          "name": "owner",
          "type": "address"
        }
      ],
      "name": "ERC721InvalidOwner",
      "type": "error"
    },
    {
      "inputs": [
        {
          "internalType": "address",
          "name": "receiver",
          "type": "address"
        }
      ],
      "name": "ERC721InvalidReceiver",
      "type": "error"
    },
    {
      "inputs": [
        {
          "internalType": "address",
          "name": "sender",
          "type": "address"
        }
      ],
      "name": "ERC721InvalidSender",
      "type": "error"
    },
    {
      "inputs": [
        {
          "internalType": "uint256",
          "name": "tokenId",
          "type": "uint256"
        }
      ],
      "name": "ERC721NonexistentToken",
      "type": "error"
    },
    {
      "anonymous": false,
      "inputs": [
        {
          "indexed": true,
          "internalType": "address",
          "name": "owner",
          "type": "address"
        },
        {
          "indexed": true,
          "internalType": "address",
          "name": "approved",
          "type": "address"
        },
        {
          "indexed": true,
          "internalType": "uint256",
          "name": "tokenId",
          "type": "uint256"
        }
      ],
      "name": "Approval",
      "type": "event"
    },
    {
      "anonymous": false,
      "inputs": [
        {
          "indexed": true,
          "internalType": "address",
          "name": "owner",
          "type": "address"
        },
        {
          "indexed": true,
          "internalType": "address",
          "name": "operator",
          "type": "address"
        },
        {
          "indexed": false,
          "internalType": "bool",
          "name": "approved",
          "type": "bool"
        }
      ],
      "name": "ApprovalForAll",
      "type": "event"
    },
    {
      "anonymous": false,
      "inputs": [
        {
          "indexed": true,
          "internalType": "string",
          "name": "taskId",
          "type": "string"
        },
        {
          "indexed": false,
          "internalType": "string",
          "name": "metadataURI",
          "type": "string"
        },
        {
          "indexed": true,
          "internalType": "address",
          "name": "creator",
          "type": "address"
        }
      ],
      "name": "BadgeCreated",
      "type": "event"
    },
    {
      "anonymous": false,
      "inputs": [
        {
          "indexed": true,
          "internalType": "address",
          "name": "user",
          "type": "address"
        },
        {
          "indexed": true,
          "internalType": "string",
          "name": "taskId",
          "type": "string"
        },
        {
          "indexed": true,
          "internalType": "uint256",
          "name": "tokenId",
          "type": "uint256"
        },
        {
          "indexed": false,
          "internalType": "string",
          "name": "metadataURI",
          "type": "string"
        }
      ],
      "name": "BadgeMinted",
      "type": "event"
    },
    {
      "anonymous": false,
      "inputs": [
        {
          "indexed": true,
          "internalType": "address",
          "name": "from",
          "type": "address"
        },
        {
          "indexed": true,
          "internalType": "address",
          "name": "to",
          "type": "address"
        },
        {
          "indexed": true,
          "internalType": "uint256",
          "name": "tokenId",
          "type": "uint256"
        }
      ],
      "name": "Transfer",
      "type": "event"
    },
    {
      "anonymous": false,
      "inputs": [
        {
          "indexed": true,
          "internalType": "address",
          "name": "from",
          "type": "address"
        },
        {
          "indexed": true,
          "internalType": "address",
          "name": "to",
          "type": "address"
        },
        {
          "indexed": true,
          "internalType": "uint256",
          "name": "tokenId",
          "type": "uint256"
        }
      ],
      "name": "TransferAttempted",
      "type": "event"
    },
    {
      "inputs": [
        {
          "internalType": "address",
          "name": "validator",
          "type": "address"
        }
      ],
      "name": "addValidator",
      "outputs": [],
      "stateMutability": "nonpayable",
      "type": "function"
    },
    {
      "inputs": [
        {
          "internalType": "address",
          "name": "to",
          "type": "address"
        },
        {
          "internalType": "uint256",
          "name": "tokenId",
          "type": "uint256"
        }
      ],
      "name": "approve",
      "outputs": [],
      "stateMutability": "nonpayable",
      "type": "function"
    },
    {
      "inputs": [
        {
          "internalType": "string",
          "name": "taskId",
          "type": "string"
        }
      ],
      "name": "badgeExists",
      "outputs": [
        {
          "internalType": "bool",
          "name": "",
          "type": "bool"
        }
      ],
      "stateMutability": "view",
      "type": "function"
    },
    {
      "inputs": [
        {
          "internalType": "address",
          "name": "owner",
          "type": "address"
        }
      ],
      "name": "balanceOf",
      "outputs": [
        {
          "internalType": "uint256",
          "name": "",
          "type": "uint256"
        }
      ],
      "stateMutability": "view",
      "type": "function"
    },
    {
      "inputs": [
        {
          "internalType": "string",
          "name": "taskId",
          "type": "string"
        },
        {
          "internalType": "string",
          "name": "metadataURI",
          "type": "string"
        }
      ],
      "name": "createBadge",
      "outputs": [],
      "stateMutability": "nonpayable",
      "type": "function"
    },
    {
      "inputs": [],
      "name": "description",
      "outputs": [
        {
          "internalType": "string",
          "name": "",
          "type": "string"
        }
      ],
      "stateMutability": "pure",
      "type": "function"
    },
    {
      "inputs": [
        {
          "internalType": "uint256",
          "name": "tokenId",
          "type": "uint256"
        }
      ],
      "name": "getApproved",
      "outputs": [
        {
          "internalType": "address",
          "name": "",
          "type": "address"
        }
      ],
      "stateMutability": "view",
      "type": "function"
    },
    {
      "inputs": [
        {
          "internalType": "string",
          "name": "taskId",
          "type": "string"
        }
      ],
      "name": "getBadgeMetadataURI",
      "outputs": [
        {
          "internalType": "string",
          "name": "",
          "type": "string"
        }
      ],
      "stateMutability": "view",
      "type": "function"
    },
    {
      "inputs": [
        {
          "internalType": "uint256",
          "name": "tokenId",
          "type": "uint256"
        }
      ],
      "name": "getTokenTaskId",
      "outputs": [
        {
          "internalType": "string",
          "name": "",
          "type": "string"
        }
      ],
      "stateMutability": "view",
      "type": "function"
    },
    {
      "inputs": [
        {
          "internalType": "address",
          "name": "user",
          "type": "address"
        }
      ],
      "name": "getUserBadges",
      "outputs": [
        {
          "internalType": "uint256[]",
          "name": "",
          "type": "uint256[]"
        }
      ],
      "stateMutability": "view",
      "type": "function"
    },
    {
      "inputs": [],
      "name": "getValidators",
      "outputs": [
        {
          "internalType": "address[]",
          "name": "",
          "type": "address[]"
        }
      ],
      "stateMutability": "view",
      "type": "function"
    },
    {
      "inputs": [
        {
          "internalType": "address",
          "name": "user",
          "type": "address"
        },
        {
          "internalType": "string",
          "name": "taskId",
          "type": "string"
        }
      ],
      "name": "hasBadge",
      "outputs": [
        {
          "internalType": "bool",
          "name": "",
          "type": "bool"
        }
      ],
      "stateMutability": "view",
      "type": "function"
    },
    {
      "inputs": [
        {
          "internalType": "address",
          "name": "owner",
          "type": "address"
        }
      ],
      "name": "init",
      "outputs": [],
      "stateMutability": "nonpayable",
      "type": "function"
    },
    {
      "inputs": [
        {
          "internalType": "address",
          "name": "owner",
          "type": "address"
        },
        {
          "internalType": "address",
          "name": "operator",
          "type": "address"
        }
      ],
      "name": "isApprovedForAll",
      "outputs": [
        {
          "internalType": "bool",
          "name": "",
          "type": "bool"
        }
      ],
      "stateMutability": "view",
      "type": "function"
    },
    {
      "inputs": [
        {
          "internalType": "address",
          "name": "validator",
          "type": "address"
        }
      ],
      "name": "isValidator",
      "outputs": [
        {
          "internalType": "bool",
          "name": "",
          "type": "bool"
        }
      ],
      "stateMutability": "view",
      "type": "function"
    },
    {
      "inputs": [
        {
          "internalType": "string",
          "name": "taskId",
          "type": "string"
        },
        {
          "internalType": "bytes",
          "name": "deid_validator_signature",
          "type": "bytes"
        }
      ],
      "name": "mintBadge",
      "outputs": [],
      "stateMutability": "nonpayable",
      "type": "function"
    },
    {
      "inputs": [],
      "name": "name",
      "outputs": [
        {
          "internalType": "string",
          "name": "",
          "type": "string"
        }
      ],
      "stateMutability": "view",
      "type": "function"
    },
    {
      "inputs": [
        {
          "internalType": "uint256",
          "name": "tokenId",
          "type": "uint256"
        }
      ],
      "name": "ownerOf",
      "outputs": [
        {
          "internalType": "address",
          "name": "",
          "type": "address"
        }
      ],
      "stateMutability": "view",
      "type": "function"
    },
    {
      "inputs": [
        {
          "internalType": "address",
          "name": "from",
          "type": "address"
        },
        {
          "internalType": "address",
          "name": "to",
          "type": "address"
        },
        {
          "internalType": "uint256",
          "name": "tokenId",
          "type": "uint256"
        }
      ],
      "name": "safeTransferFrom",
      "outputs": [],
      "stateMutability": "nonpayable",
      "type": "function"
    },
    {
      "inputs": [
        {
          "internalType": "address",
          "name": "from",
          "type": "address"
        },
        {
          "internalType": "address",
          "name": "to",
          "type": "address"
        },
        {
          "internalType": "uint256",
          "name": "tokenId",
          "type": "uint256"
        },
        {
          "internalType": "bytes",
          "name": "data",
          "type": "bytes"
        }
      ],
      "name": "safeTransferFrom",
      "outputs": [],
      "stateMutability": "nonpayable",
      "type": "function"
    },
    {
      "inputs": [
        {
          "internalType": "address",
          "name": "operator",
          "type": "address"
        },
        {
          "internalType": "bool",
          "name": "approved",
          "type": "bool"
        }
      ],
      "name": "setApprovalForAll",
      "outputs": [],
      "stateMutability": "nonpayable",
      "type": "function"
    },
    {
      "inputs": [
        {
          "internalType": "bytes4",
          "name": "interfaceId",
          "type": "bytes4"
        }
      ],
      "name": "supportsInterface",
      "outputs": [
        {
          "internalType": "bool",
          "name": "",
          "type": "bool"
        }
      ],
      "stateMutability": "view",
      "type": "function"
    },
    {
      "inputs": [],
      "name": "symbol",
      "outputs": [
        {
          "internalType": "string",
          "name": "",
          "type": "string"
        }
      ],
      "stateMutability": "view",
      "type": "function"
    },
    {
      "inputs": [
        {
          "internalType": "uint256",
          "name": "tokenId",
          "type": "uint256"
        }
      ],
      "name": "tokenURI",
      "outputs": [
        {
          "internalType": "string",
          "name": "",
          "type": "string"
        }
      ],
      "stateMutability": "view",
      "type": "function"
    },
    {
      "inputs": [
        {
          "internalType": "address",
          "name": "from",
          "type": "address"
        },
        {
          "internalType": "address",
          "name": "to",
          "type": "address"
        },
        {
          "internalType": "uint256",
          "name": "tokenId",
          "type": "uint256"
        }
      ],
      "name": "transferFrom",
      "outputs": [],
      "stateMutability": "nonpayable",
      "type": "function"
    }
  ],
  "bytecode": "0x60806040523461032b57604080519081016001600160401b03811182821017610238576040908152600a8252694445694420426164676560b01b602083015280519081016001600160401b0381118282101761023857604052600981526844454944424144474560b81b602082015281516001600160401b03811161023857600054600181811c91168015610321575b602082101461021857601f81116102bd575b50602092601f8211600114610259579281929360009261024e575b50508160011b916000199060031b1c1916176000555b80516001600160401b03811161023857600154600181811c9116801561022e575b602082101461021857601f81116101b3575b50602091601f821160011461014f57918192600092610144575b50508160011b916000199060031b1c1916176001555b6040516122a290816103318239f35b01519050388061011f565b601f198216926001600052806000209160005b85811061019b57508360019510610182575b505050811b01600155610135565b015160001960f88460031b161c19169055388080610174565b91926020600181928685015181550194019201610162565b60016000527fb10e2d527612073b26eecdfd717e6a320cf44b4afac2b0732d9fcbe2b7fa0cf6601f830160051c8101916020841061020e575b601f0160051c01905b8181106102025750610105565b600081556001016101f5565b90915081906101ec565b634e487b7160e01b600052602260045260246000fd5b90607f16906100f3565b634e487b7160e01b600052604160045260246000fd5b0151905038806100bc565b601f1982169360008052806000209160005b8681106102a5575083600195961061028c575b505050811b016000556100d2565b015160001960f88460031b161c1916905538808061027e565b9192602060018192868501518155019401920161026b565b600080527f290decd9548b62a8d60345a988386fc84ba6bc95484008f6362f93160ef3e563601f830160051c81019160208410610317575b601f0160051c01905b81811061030b57506100a1565b600081556001016102fe565b90915081906102f5565b90607f169061008f565b600080fdfe6080604052600436101561001257600080fd5b60003560e01c806301ffc9a7146101a757806306fdde03146101a2578063081812fc1461019d578063095ea7b314610198578063107b70fa1461019357806319ab453c1461018e57806323b872dd1461018957806337c245fe1461018457806338a301ff1461017f57806342842e0e1461017a57806343227aaf146101755780634d238c8e146101705780636352211e1461016b57806370a08231146101665780637284e4161461016157806395d89b411461015c578063a22cb46514610157578063b7ab4db514610152578063b88d4fde1461014d578063c87b56dd14610148578063dd5b134d14610143578063e985e9c51461013e578063ec14bec914610139578063f353baf0146101345763facd743b1461012f57600080fd5b61110d565b610eb2565b610e9e565b610e4d565b610e2e565b610df3565b610d9f565b610d38565b610c7f565b610ba6565b610b2a565b610ad4565b610aa4565b610a00565b6109d7565b610977565b61075a565b6106b1565b610660565b610560565b610504565b610347565b6102dd565b61028d565b6101c3565b6001600160e01b03198116036101be57565b600080fd5b346101be5760203660031901126101be5760206004356101e2816101ac565b63ffffffff60e01b166380ac58cd60e01b8114908115610220575b811561020f575b506040519015158152f35b6301ffc9a760e01b14905038610204565b635b5e139f60e01b811491506101fd565b60005b8381106102445750506000910152565b8181015183820152602001610234565b9060209161026d81518092818552858086019101610231565b601f01601f1916010190565b90602061028a928181520190610254565b90565b346101be5760003660031901126101be576102d960408051906102b0818361046d565b600a8252694445694420426164676560b01b602083015251918291602083526020830190610254565b0390f35b346101be5760203660031901126101be576004356102fa816113c3565b506000526004602052602060018060a01b0360406000205416604051908152f35b600435906001600160a01b03821682036101be57565b602435906001600160a01b03821682036101be57565b346101be5760403660031901126101be5761036061031b565b6024359061036d826113c3565b33151580610444575b80610402575b6103ed576103eb926103cc9181906001600160a01b0385811691167f8c5be1e5ebec7d5bd14f71427d1e84f3dd0314c0f7b2291e5b200ac8c7c3b925600080a46000526004602052604060002090565b80546001600160a01b0319166001600160a01b03909216919091179055565b005b63a9fbf51f60e01b6000523360045260246000fd5b5060ff61043c336104258460018060a01b03166000526005602052604060002090565b9060018060a01b0316600052602052604060002090565b54161561037c565b506001600160a01b038116331415610376565b634e487b7160e01b600052604160045260246000fd5b90601f801991011681019081106001600160401b0382111761048e57604052565b610457565b604051906104a260a08361046d565b565b6001600160401b03811161048e57601f01601f191660200190565b81601f820112156101be576020813591016104d9826104a4565b926104e7604051948561046d565b828452828201116101be5781600092602092838601378301015290565b346101be5760403660031901126101be5761051d61031b565b602435906001600160401b0382116101be5761055460ff9161054e61054860209536906004016104bf565b916112cd565b9061143f565b54166040519015158152f35b346101be5760203660031901126101be5761057961031b565b7f6599c9bcbc8fbc8e7a91a3228f62cbd46e9e11ae810bbc939daab7c8741db2c0546001600160a01b03166105eb577f6599c9bcbc8fbc8e7a91a3228f62cbd46e9e11ae810bbc939daab7c8741db2c080546001600160a01b0319166001600160a01b0383161790556103eb906114b5565b60405162461bcd60e51b8152602060048201526013602482015272105b1c9958591e481a5b9a5d1a585b1a5e9959606a1b6044820152606490fd5b60609060031901126101be576004356001600160a01b03811681036101be57906024356001600160a01b03811681036101be579060443590565b346101be576103eb61067136610626565b91611146565b602060408183019282815284518094520192019060005b81811061069b5750505090565b825184526020938401939092019160010161068e565b346101be5760203660031901126101be576107066106cd61031b565b6001600160a01b031660009081527f6599c9bcbc8fbc8e7a91a3228f62cbd46e9e11ae810bbc939daab7c8741db2bb6020526040902090565b60405190816020825491828152019160005260206000209060005b818110610744576102d9856107388187038261046d565b60405191829182610677565b8254845260209093019260019283019201610721565b346101be5760403660031901126101be576004356001600160401b0381116101be5761078a9036906004016104bf565b6024356001600160401b0381116101be576107a99036906004016104bf565b906107b333611d4e565b15610923578051156108ec576107cb82511515611253565b60ff60046107d8836113fa565b0154166108b05761087b906107ef83511515611253565b6108256107fa610493565b8281526020810185905233604082015242606082015260016080820152610820836113fa565b61168a565b6108766108527f6599c9bcbc8fbc8e7a91a3228f62cbd46e9e11ae810bbc939daab7c8741db2bf546117c7565b7f6599c9bcbc8fbc8e7a91a3228f62cbd46e9e11ae810bbc939daab7c8741db2bf55565b6112ad565b7f2bf02f0a6907f1bc77e52f89251be064a31efe5433ea74b9ae46dcd986575019604051806108ab339582610279565b0390a3005b60405162461bcd60e51b8152602060048201526014602482015273426164676520616c72656164792065786973747360601b6044820152606490fd5b60405162461bcd60e51b815260206004820152600f60248201526e125b9d985b1a59081d185cdac81251608a1b6044820152606490fd5b60405162461bcd60e51b815260206004820152602660248201527f4f6e6c792076616c696461746f72732063616e2063616c6c20746869732066756044820152653731ba34b7b760d11b6064820152608490fd5b346101be576103eb61098836610626565b906040519261099860208561046d565b600084526109a7838383611146565b336119d4565b60206003198201126101be57600435906001600160401b0382116101be5761028a916004016104bf565b346101be57602060ff60046109f36109ee366109ad565b6113fa565b0154166040519015158152f35b346101be5760203660031901126101be57610a1961031b565b7f6599c9bcbc8fbc8e7a91a3228f62cbd46e9e11ae810bbc939daab7c8741db2c054336001600160a01b0390911603610a55576103eb906114b5565b60405162461bcd60e51b815260206004820152602160248201527f4f6e6c79206f776e65722063616e2063616c6c20746869732066756e6374696f6044820152603760f91b6064820152608490fd5b346101be5760203660031901126101be576020610ac26004356113c3565b6040516001600160a01b039091168152f35b346101be5760203660031901126101be576001600160a01b03610af561031b565b168015610b145760005260036020526020604060002054604051908152f35b6322718ad960e21b600052600060045260246000fd5b346101be5760003660031901126101be576102d9604051610b4c60608261046d565b603381527f536f756c626f756e6420616368696576656d656e742062616467657320666f726020820152722074686520444569442065636f73797374656d60681b6040820152604051918291602083526020830190610254565b346101be5760003660031901126101be576040516000600154610bc881611306565b8084529060018116908115610c5b5750600114610bfc575b6102d983610bf08185038261046d565b60405191829182610279565b600160009081527fb10e2d527612073b26eecdfd717e6a320cf44b4afac2b0732d9fcbe2b7fa0cf6939250905b808210610c4157509091508101602001610bf0610be0565b919260018160209254838588010152019101909291610c29565b60ff191660208086019190915291151560051b84019091019150610bf09050610be0565b346101be5760403660031901126101be57610c9861031b565b60243590811515908183036101be576001600160a01b038116928315610d2357610ce4610cf59233600052600560205260406000209060018060a01b0316600052602052604060002090565b9060ff801983541691151516179055565b6040519081527f17307eab39ab6107e8899845ad3d59bd9653f200f220920489ca2b5937696c3160203392a3005b83630b61174360e31b60005260045260246000fd5b346101be5760003660031901126101be57610d516117ec565b60405180916020820160208352815180915260206040840192019060005b818110610d7d575050500390f35b82516001600160a01b0316845285945060209384019390920191600101610d6f565b346101be5760803660031901126101be57610db861031b565b610dc0610331565b90604435606435926001600160401b0384116101be57610de76103eb9436906004016104bf565b926109a7838383611146565b346101be5760203660031901126101be576102d9610e1a610e15600435611a70565b611ab5565b604051918291602083526020830190610254565b346101be5760203660031901126101be576102d9610e1a600435611a70565b346101be5760403660031901126101be57602060ff610554610e6d61031b565b610e75610331565b6001600160a01b0391821660009081526005865260408082209290931681526020919091522090565b346101be576102d9610e1a610e15366109ad565b346101be5760403660031901126101be576004356001600160401b0381116101be57610ee29036906004016104bf565b6024356001600160401b0381116101be57610f04610f0b9136906004016104bf565b8233611ad3565b156110c85760ff6004610f1d836113fa565b0154161561108c57610f50610f4b610f47610f40610f3a336112cd565b8561143f565b5460ff1690565b1590565b611bb5565b7f6599c9bcbc8fbc8e7a91a3228f62cbd46e9e11ae810bbc939daab7c8741db2be5490610fa3610f7f836117c7565b7f6599c9bcbc8fbc8e7a91a3228f62cbd46e9e11ae810bbc939daab7c8741db2be55565b610fdf81610fda846000527f6599c9bcbc8fbc8e7a91a3228f62cbd46e9e11ae810bbc939daab7c8741db2bc602052604060002090565b6115b9565b3360009081527f6599c9bcbc8fbc8e7a91a3228f62cbd46e9e11ae810bbc939daab7c8741db2bb60205260409020611018908390611c01565b61103a61102d611027336112cd565b8361143f565b805460ff19166001179055565b6110448233611c2a565b61105661105082611ab5565b916112ad565b907f8909e684a7141409bda2f017228e3508cb0f060d44d5645bfaa42072ae8d38fc60405180611087339482610279565b0390a4005b60405162461bcd60e51b815260206004820152601460248201527310985919d948191bd95cc81b9bdd08195e1a5cdd60621b6044820152606490fd5b60405162461bcd60e51b815260206004820152601b60248201527f496e76616c69642076616c696461746f72207369676e617475726500000000006044820152606490fd5b346101be5760203660031901126101be57602061112861031b565b61113c600019916111376117ec565b6121a2565b6040519114158152f35b91906001600160a01b038116801561123d576000838152600260205260408120549091906001600160a01b0316806111ba5750505061118790823391611d62565b6001600160a01b0390811692168083036111a057505050565b6364283d7b60e01b60005260045260245260445260646000fd5b6084949293507fa3bf7e462a2d4210907087d06c92c20fa2e64699b3dbd3d01bff6ae5b7b9ca6e6040519480a462461bcd60e51b815260206004820152602e60248201527f4261646765732061726520736f756c626f756e6420616e642063616e6e6f742060448201526d1899481d1c985b9cd9995c9c995960921b6064820152fd5b633250574960e11b600052600060045260246000fd5b1561125a57565b60405162461bcd60e51b8152602060048201526014602482015273496e76616c6964206d657461646174612055524960601b6044820152606490fd5b906112a960209282815194859201610231565b0190565b6112c590602060405192828480945193849201610231565b810103902090565b6001600160a01b031660009081527f6599c9bcbc8fbc8e7a91a3228f62cbd46e9e11ae810bbc939daab7c8741db2bd6020526040902090565b90600182811c92168015611336575b602083101461132057565b634e487b7160e01b600052602260045260246000fd5b91607f1691611315565b6000929181549161135083611306565b80835292600181169081156113a6575060011461136c57505050565b60009081526020812093945091925b83831061138c575060209250010190565b60018160209294939454838587010152019101919061137b565b915050602093945060ff929192191683830152151560051b010190565b6000818152600260205260409020546001600160a01b03169081156113e6575090565b637e27328960e01b60005260045260246000fd5b6020611413918160405193828580945193849201610231565b81017f6599c9bcbc8fbc8e7a91a3228f62cbd46e9e11ae810bbc939daab7c8741db2ba81520301902090565b602090611459928260405194838680955193849201610231565b82019081520301902090565b634e487b7160e01b600052603260045260246000fd5b600080516020612256833981519152548110156114b05760008051602061225683398151915260005260206000200190600090565b611465565b6000196114c4826111376117ec565b146114cc5750565b60008051602061227683398151915254600160401b81101561048e5760018101600080516020612276833981519152556000600080516020612276833981519152548210156114b05760008051602061227683398151915290527f732a11aa9b876e93e6156ba9356f45a59d36f4e574a1660f5df7ed7d1c03f3090180546001600160a01b0319166001600160a01b03909216919091179055565b601f821161157457505050565b6000526020600020906020601f840160051c830193106115af575b601f0160051c01905b8181106115a3575050565b60008155600101611598565b909150819061158f565b91909182516001600160401b03811161048e576115e0816115da8454611306565b84611567565b6020601f8211600114611621578190611612939495600092611616575b50508160011b916000199060031b1c19161790565b9055565b0151905038806115fd565b601f1982169061163684600052602060002090565b9160005b81811061167257509583600195969710611659575b505050811b019055565b015160001960f88460031b161c1916905538808061164f565b9192602060018192868b01518155019401920161163a565b91909182519283516001600160401b03811161048e576116b4816116ae8554611306565b85611567565b6020601f821160011461174e576004926116f08361173b946080946104a2999a6000926116165750508160011b916000199060031b1c19161790565b85555b6117046020820151600187016115b9565b60408101516002860180546001600160a01b0319166001600160a01b03909216919091179055606081015160038601550151151590565b91019060ff801983541691151516179055565b601f1982169561176385600052602060002090565b9660005b8181106117af5750836104a297986080946004979461173b9760019510611796575b505050811b0185556116f3565b015160001960f88460031b161c19169055388080611789565b83830151895560019098019760209384019301611767565b60001981146117d65760010190565b634e487b7160e01b600052601160045260246000fd5b6040519060008051602061227683398151915254808352826020810160008051602061227683398151915260005260206000209260005b8181106118385750506104a29250038361046d565b84546001600160a01b0316835260019485019487945060209093019201611823565b908160209103126101be575161028a816101ac565b6001600160a01b03918216815291166020820152604081019190915260806060820181905261028a92910190610254565b6040513d6000823e3d90fd5b3d156118d7573d906118bd826104a4565b916118cb604051938461046d565b82523d6000602084013e565b606090565b9092833b6118eb575b50505050565b604051630a85bd0160e11b81529260209284928392611910926000906004860161186f565b038160006001600160a01b0387165af1600091816119a3575b5061196557506119376118ac565b805191908261195e57633250574960e11b6000526001600160a01b03821660045260246000fd5b6020915001fd5b6001600160e01b03191663757a42ff60e11b016119865750388080806118e5565b633250574960e11b6000526001600160a01b031660045260246000fd5b6119c691925060203d6020116119cd575b6119be818361046d565b81019061185a565b9038611929565b503d6119b4565b939193843b6119e5575b5050505050565b611a066020936040519586948594630a85bd0160e11b86526004860161186f565b038160006001600160a01b0387165af160009181611a4f575b50611a2d57506119376118ac565b6001600160e01b03191663757a42ff60e11b01611986575038808080806119de565b611a6991925060203d6020116119cd576119be818361046d565b9038611a1f565b6000527f6599c9bcbc8fbc8e7a91a3228f62cbd46e9e11ae810bbc939daab7c8741db2bc602052611aae61028a604060002060405192838092611340565b038261046d565b61028a6001611ac6611aae936113fa565b0160405192838092611340565b611b2c8391611b3193611b246034604051809360208201956bffffffffffffffffffffffff199060601b168652611b138151809260208686019101610231565b81010301601f19810183528261046d565b519020611f15565b611f5a565b90611b3b81611fef565b611b6257611b5491611b4f610f479261209c565b611d4e565b611b5d57600190565b600090565b60405162461bcd60e51b815260206004820152602560248201527f446569642076616c696461746f72207369676e617475726520616c7265616479604482015264081d5cd95960da1b6064820152608490fd5b15611bbc57565b60405162461bcd60e51b815260206004820152601b60248201527f5573657220616c726561647920686173207468697320626164676500000000006044820152606490fd5b805490600160401b82101561048e57600182018082558210156114b05760005260206000200155565b60405190916020611c3b818461046d565b600083526001600160a01b03841690811561123d5760008381526002825260408120549092906001600160a01b031680611caa57505050611c7d908285611d62565b6001600160a01b0316611c94576104a292336118dc565b6339e3563760e11b600052600060045260246000fd5b90608494917fa3bf7e462a2d4210907087d06c92c20fa2e64699b3dbd3d01bff6ae5b7b9ca6e6040519580a462461bcd60e51b82526004820152602e60248201527f4261646765732061726520736f756c626f756e6420616e642063616e6e6f742060448201526d1899481d1c985b9cd9995c9c995960921b6064820152fd5b611d3e906000526004602052604060002090565b80546001600160a01b0319169055565b611d5d600019916111376117ec565b141590565b6000828152600260205260409020546001600160a01b0390811693908116611e39575b506001600160a01b03831680611e0b575b6001600160a01b03821691611dbf9083611de7575b6103cc856000526002602052604060002090565b7fddf252ad1be2c89b69c2b068fc378daa952ba7f163c4a11628f55a4df523b3ef600080a490565b6001600160a01b038116600090815260036020526040902060018154019055611dab565b611e1483611d2a565b6001600160a01b03841660009081526003602052604090208054600019019055611d96565b611e546001600160a01b0382168015159081611e9e57501590565b15611d8557826001600160a01b038516611e7c57637e27328960e01b60005260045260246000fd5b63177e802f60e01b6000526001600160a01b0390911660045260245260446000fd5b6001600160a01b03871680821492508215611edf575b508115611ec057501590565b6000868152600460205260409020546001600160a01b03161490501590565b909150600052600560205260ff611f0c8460406000209060018060a01b0316600052602052604060002090565b54169038611eb4565b60405160208101917f19457468657265756d205369676e6564204d6573736167653a0a3332000000008352603c820152603c8152611f54605c8261046d565b51902090565b6041825103611faa576020828101516040808501516060958601518251958652600090811a868601529185019290925293830152828052919060809060015afa15611fa55760005190565b6118a0565b60405162461bcd60e51b815260206004820152601860248201527f496e76616c6964207369676e6174757265206c656e67746800000000000000006044820152606490fd5b60008051602061225683398151915254906001600160401b03821161048e576040519161202260208260051b018461046d565b80835260008051602061225683398151915260009081527f6143f10953e4fbed1522382278ab1322081ef721720d4eac45504d08f839dd17602085015b8383106120775750505050611d5d90600019926121e9565b60016020819260405161208e81611aae8189611340565b81520192019201919061205f565b9060008051602061225683398151915254600160401b81101561048e578060016120d692016000805160206122568339815191525561147b565b6121785782516001600160401b03811161048e576120f8816115da8454611306565b6020601f82116001146121295781906116129394956000926116165750508160011b916000199060031b1c19161790565b601f1982169061213e84600052602060002090565b9160005b8181106121605750958360019596971061165957505050811b019055565b9192602060018192868b015181550194019201612142565b634e487b7160e01b600052600060045260246000fd5b80518210156114b05760209160051b010190565b9060005b82518110156121e0576001600160a01b036121c1828561218e565b51166001600160a01b038316146121da576001016121a6565b91505090565b50505060001990565b9060005b82518110156121e057612200818461218e565b5160405161221e60208281611b138183019687815193849201610231565b5190206040516020810190612245816122378488611296565b03601f19810183528261046d565b519020146121da576001016121ed56fec48fc816533f30037aec7cfb5ae61f31811475ef705fc209cf71834561dd1813c48fc816533f30037aec7cfb5ae61f31811475ef705fc209cf71834561dd1812a164736f6c634300081c000a",
  "linkReferences": {},
  "deployedLinkReferences": {}
}