{
  "_format": "hh-sol-artifact-1",
  "contractName": "BadgeSystem",
  "sourceName": "contracts/verification/BadgeSystem.sol",
  "abi": [
    {
      "inputs": [],
      "stateMutability": "nonpayable",
      "type": "constructor"
    },
    {
      "inputs": [
        {
          "internalType": "address",
          "name": "sender",
          "type": "address"
        },
        {
          "internalType": "uint256",
          "name": "tokenId",
          "type": "uint256"
        },
        {
          "internalType": "address",
          "name": "owner",
          "type": "address"
        }
      ],
      "name": "ERC721IncorrectOwner",
      "type": "error"
    },
    {
      "inputs": [
        {
          "internalType": "address",
          "name": "operator",
          "type": "address"
        },
        {
          "internalType": "uint256",
          "name": "tokenId",
          "type": "uint256"
        }
      ],
      "name": "ERC721InsufficientApproval",
      "type": "error"
    },
    {
      "inputs": [
        {
          "internalType": "address",
          "name": "approver",
          "type": "address"
        }
      ],
      "name": "ERC721InvalidApprover",
      "type": "error"
    },
    {
      "inputs": [
        {
          "internalType": "address",
          "name": "operator",
          "type": "address"
        }
      ],
      "name": "ERC721InvalidOperator",
      "type": "error"
    },
    {
      "inputs": [
        {
          "internalType": "address",
          "name": "owner",
          "type": "address"
        }
      ],
      "name": "ERC721InvalidOwner",
      "type": "error"
    },
    {
      "inputs": [
        {
          "internalType": "address",
          "name": "receiver",
          "type": "address"
        }
      ],
      "name": "ERC721InvalidReceiver",
      "type": "error"
    },
    {
      "inputs": [
        {
          "internalType": "address",
          "name": "sender",
          "type": "address"
        }
      ],
      "name": "ERC721InvalidSender",
      "type": "error"
    },
    {
      "inputs": [
        {
          "internalType": "uint256",
          "name": "tokenId",
          "type": "uint256"
        }
      ],
      "name": "ERC721NonexistentToken",
      "type": "error"
    },
    {
      "anonymous": false,
      "inputs": [
        {
          "indexed": true,
          "internalType": "address",
          "name": "owner",
          "type": "address"
        },
        {
          "indexed": true,
          "internalType": "address",
          "name": "approved",
          "type": "address"
        },
        {
          "indexed": true,
          "internalType": "uint256",
          "name": "tokenId",
          "type": "uint256"
        }
      ],
      "name": "Approval",
      "type": "event"
    },
    {
      "anonymous": false,
      "inputs": [
        {
          "indexed": true,
          "internalType": "address",
          "name": "owner",
          "type": "address"
        },
        {
          "indexed": true,
          "internalType": "address",
          "name": "operator",
          "type": "address"
        },
        {
          "indexed": false,
          "internalType": "bool",
          "name": "approved",
          "type": "bool"
        }
      ],
      "name": "ApprovalForAll",
      "type": "event"
    },
    {
      "anonymous": false,
      "inputs": [
        {
          "indexed": true,
          "internalType": "string",
          "name": "taskId",
          "type": "string"
        },
        {
          "indexed": false,
          "internalType": "string",
          "name": "metadataURI",
          "type": "string"
        },
        {
          "indexed": true,
          "internalType": "address",
          "name": "creator",
          "type": "address"
        }
      ],
      "name": "BadgeCreated",
      "type": "event"
    },
    {
      "anonymous": false,
      "inputs": [
        {
          "indexed": true,
          "internalType": "address",
          "name": "user",
          "type": "address"
        },
        {
          "indexed": true,
          "internalType": "string",
          "name": "taskId",
          "type": "string"
        },
        {
          "indexed": true,
          "internalType": "uint256",
          "name": "tokenId",
          "type": "uint256"
        },
        {
          "indexed": false,
          "internalType": "string",
          "name": "metadataURI",
          "type": "string"
        }
      ],
      "name": "BadgeMinted",
      "type": "event"
    },
    {
      "anonymous": false,
      "inputs": [
        {
          "indexed": true,
          "internalType": "address",
          "name": "from",
          "type": "address"
        },
        {
          "indexed": true,
          "internalType": "address",
          "name": "to",
          "type": "address"
        },
        {
          "indexed": true,
          "internalType": "uint256",
          "name": "tokenId",
          "type": "uint256"
        }
      ],
      "name": "Transfer",
      "type": "event"
    },
    {
      "anonymous": false,
      "inputs": [
        {
          "indexed": true,
          "internalType": "address",
          "name": "from",
          "type": "address"
        },
        {
          "indexed": true,
          "internalType": "address",
          "name": "to",
          "type": "address"
        },
        {
          "indexed": true,
          "internalType": "uint256",
          "name": "tokenId",
          "type": "uint256"
        }
      ],
      "name": "TransferAttempted",
      "type": "event"
    },
    {
      "inputs": [
        {
          "internalType": "address",
          "name": "validator",
          "type": "address"
        }
      ],
      "name": "addValidator",
      "outputs": [],
      "stateMutability": "nonpayable",
      "type": "function"
    },
    {
      "inputs": [
        {
          "internalType": "address",
          "name": "to",
          "type": "address"
        },
        {
          "internalType": "uint256",
          "name": "tokenId",
          "type": "uint256"
        }
      ],
      "name": "approve",
      "outputs": [],
      "stateMutability": "nonpayable",
      "type": "function"
    },
    {
      "inputs": [
        {
          "internalType": "string",
          "name": "taskId",
          "type": "string"
        }
      ],
      "name": "badgeExists",
      "outputs": [
        {
          "internalType": "bool",
          "name": "",
          "type": "bool"
        }
      ],
      "stateMutability": "view",
      "type": "function"
    },
    {
      "inputs": [
        {
          "internalType": "address",
          "name": "owner",
          "type": "address"
        }
      ],
      "name": "balanceOf",
      "outputs": [
        {
          "internalType": "uint256",
          "name": "",
          "type": "uint256"
        }
      ],
      "stateMutability": "view",
      "type": "function"
    },
    {
      "inputs": [
        {
          "internalType": "string",
          "name": "taskId",
          "type": "string"
        },
        {
          "internalType": "string",
          "name": "metadataURI",
          "type": "string"
        }
      ],
      "name": "createBadge",
      "outputs": [],
      "stateMutability": "nonpayable",
      "type": "function"
    },
    {
      "inputs": [
        {
          "internalType": "uint256",
          "name": "tokenId",
          "type": "uint256"
        }
      ],
      "name": "getApproved",
      "outputs": [
        {
          "internalType": "address",
          "name": "",
          "type": "address"
        }
      ],
      "stateMutability": "view",
      "type": "function"
    },
    {
      "inputs": [
        {
          "internalType": "string",
          "name": "taskId",
          "type": "string"
        }
      ],
      "name": "getBadgeMetadataURI",
      "outputs": [
        {
          "internalType": "string",
          "name": "",
          "type": "string"
        }
      ],
      "stateMutability": "view",
      "type": "function"
    },
    {
      "inputs": [
        {
          "internalType": "uint256",
          "name": "tokenId",
          "type": "uint256"
        }
      ],
      "name": "getTokenTaskId",
      "outputs": [
        {
          "internalType": "string",
          "name": "",
          "type": "string"
        }
      ],
      "stateMutability": "view",
      "type": "function"
    },
    {
      "inputs": [
        {
          "internalType": "address",
          "name": "user",
          "type": "address"
        }
      ],
      "name": "getUserBadges",
      "outputs": [
        {
          "internalType": "uint256[]",
          "name": "",
          "type": "uint256[]"
        }
      ],
      "stateMutability": "view",
      "type": "function"
    },
    {
      "inputs": [],
      "name": "getValidators",
      "outputs": [
        {
          "internalType": "address[]",
          "name": "",
          "type": "address[]"
        }
      ],
      "stateMutability": "view",
      "type": "function"
    },
    {
      "inputs": [
        {
          "internalType": "address",
          "name": "user",
          "type": "address"
        },
        {
          "internalType": "string",
          "name": "taskId",
          "type": "string"
        }
      ],
      "name": "hasBadge",
      "outputs": [
        {
          "internalType": "bool",
          "name": "",
          "type": "bool"
        }
      ],
      "stateMutability": "view",
      "type": "function"
    },
    {
      "inputs": [
        {
          "internalType": "address",
          "name": "owner",
          "type": "address"
        }
      ],
      "name": "init",
      "outputs": [],
      "stateMutability": "nonpayable",
      "type": "function"
    },
    {
      "inputs": [
        {
          "internalType": "address",
          "name": "owner",
          "type": "address"
        },
        {
          "internalType": "address",
          "name": "operator",
          "type": "address"
        }
      ],
      "name": "isApprovedForAll",
      "outputs": [
        {
          "internalType": "bool",
          "name": "",
          "type": "bool"
        }
      ],
      "stateMutability": "view",
      "type": "function"
    },
    {
      "inputs": [
        {
          "internalType": "address",
          "name": "validator",
          "type": "address"
        }
      ],
      "name": "isValidator",
      "outputs": [
        {
          "internalType": "bool",
          "name": "",
          "type": "bool"
        }
      ],
      "stateMutability": "view",
      "type": "function"
    },
    {
      "inputs": [
        {
          "internalType": "string",
          "name": "taskId",
          "type": "string"
        },
        {
          "internalType": "bytes",
          "name": "deid_validator_signature",
          "type": "bytes"
        }
      ],
      "name": "mintBadge",
      "outputs": [],
      "stateMutability": "nonpayable",
      "type": "function"
    },
    {
      "inputs": [],
      "name": "name",
      "outputs": [
        {
          "internalType": "string",
          "name": "",
          "type": "string"
        }
      ],
      "stateMutability": "view",
      "type": "function"
    },
    {
      "inputs": [
        {
          "internalType": "uint256",
          "name": "tokenId",
          "type": "uint256"
        }
      ],
      "name": "ownerOf",
      "outputs": [
        {
          "internalType": "address",
          "name": "",
          "type": "address"
        }
      ],
      "stateMutability": "view",
      "type": "function"
    },
    {
      "inputs": [
        {
          "internalType": "address",
          "name": "from",
          "type": "address"
        },
        {
          "internalType": "address",
          "name": "to",
          "type": "address"
        },
        {
          "internalType": "uint256",
          "name": "tokenId",
          "type": "uint256"
        }
      ],
      "name": "safeTransferFrom",
      "outputs": [],
      "stateMutability": "nonpayable",
      "type": "function"
    },
    {
      "inputs": [
        {
          "internalType": "address",
          "name": "from",
          "type": "address"
        },
        {
          "internalType": "address",
          "name": "to",
          "type": "address"
        },
        {
          "internalType": "uint256",
          "name": "tokenId",
          "type": "uint256"
        },
        {
          "internalType": "bytes",
          "name": "data",
          "type": "bytes"
        }
      ],
      "name": "safeTransferFrom",
      "outputs": [],
      "stateMutability": "nonpayable",
      "type": "function"
    },
    {
      "inputs": [
        {
          "internalType": "address",
          "name": "operator",
          "type": "address"
        },
        {
          "internalType": "bool",
          "name": "approved",
          "type": "bool"
        }
      ],
      "name": "setApprovalForAll",
      "outputs": [],
      "stateMutability": "nonpayable",
      "type": "function"
    },
    {
      "inputs": [
        {
          "internalType": "bytes4",
          "name": "interfaceId",
          "type": "bytes4"
        }
      ],
      "name": "supportsInterface",
      "outputs": [
        {
          "internalType": "bool",
          "name": "",
          "type": "bool"
        }
      ],
      "stateMutability": "view",
      "type": "function"
    },
    {
      "inputs": [],
      "name": "symbol",
      "outputs": [
        {
          "internalType": "string",
          "name": "",
          "type": "string"
        }
      ],
      "stateMutability": "view",
      "type": "function"
    },
    {
      "inputs": [
        {
          "internalType": "uint256",
          "name": "tokenId",
          "type": "uint256"
        }
      ],
      "name": "tokenURI",
      "outputs": [
        {
          "internalType": "string",
          "name": "",
          "type": "string"
        }
      ],
      "stateMutability": "view",
      "type": "function"
    },
    {
      "inputs": [
        {
          "internalType": "address",
          "name": "from",
          "type": "address"
        },
        {
          "internalType": "address",
          "name": "to",
          "type": "address"
        },
        {
          "internalType": "uint256",
          "name": "tokenId",
          "type": "uint256"
        }
      ],
      "name": "transferFrom",
      "outputs": [],
      "stateMutability": "nonpayable",
      "type": "function"
    }
  ],
  "bytecode": "0x60806040523461032b57604080519081016001600160401b03811182821017610238576040908152600a8252694445694420426164676560b01b602083015280519081016001600160401b0381118282101761023857604052600981526844454944424144474560b81b602082015281516001600160401b03811161023857600054600181811c91168015610321575b602082101461021857601f81116102bd575b50602092601f8211600114610259579281929360009261024e575b50508160011b916000199060031b1c1916176000555b80516001600160401b03811161023857600154600181811c9116801561022e575b602082101461021857601f81116101b3575b50602091601f821160011461014f57918192600092610144575b50508160011b916000199060031b1c1916176001555b60405161224990816103318239f35b01519050388061011f565b601f198216926001600052806000209160005b85811061019b57508360019510610182575b505050811b01600155610135565b015160001960f88460031b161c19169055388080610174565b91926020600181928685015181550194019201610162565b60016000527fb10e2d527612073b26eecdfd717e6a320cf44b4afac2b0732d9fcbe2b7fa0cf6601f830160051c8101916020841061020e575b601f0160051c01905b8181106102025750610105565b600081556001016101f5565b90915081906101ec565b634e487b7160e01b600052602260045260246000fd5b90607f16906100f3565b634e487b7160e01b600052604160045260246000fd5b0151905038806100bc565b601f1982169360008052806000209160005b8681106102a5575083600195961061028c575b505050811b016000556100d2565b015160001960f88460031b161c1916905538808061027e565b9192602060018192868501518155019401920161026b565b600080527f290decd9548b62a8d60345a988386fc84ba6bc95484008f6362f93160ef3e563601f830160051c81019160208410610317575b601f0160051c01905b81811061030b57506100a1565b600081556001016102fe565b90915081906102f5565b90607f169061008f565b600080fdfe6080604052600436101561001257600080fd5b60003560e01c806301ffc9a71461019757806306fdde0314610192578063081812fc1461018d578063095ea7b314610188578063107b70fa1461018357806319ab453c1461017e57806323b872dd1461017957806337c245fe1461017457806338a301ff1461016f57806342842e0e1461016a57806343227aaf146101655780634d238c8e146101605780636352211e1461015b57806370a082311461015657806395d89b4114610151578063a22cb4651461014c578063b7ab4db514610147578063b88d4fde14610142578063c87b56dd1461013d578063dd5b134d14610138578063e985e9c514610133578063ec14bec91461012e578063f353baf0146101295763facd743b1461012457600080fd5b61106c565b610e89565b610e75565b610e24565b610e05565b610dc0565b610d6c565b610d05565b610c4c565b610ba4565b610b4e565b610b1e565b610a7a565b610a51565b6109f1565b6107d4565b61072b565b6106da565b6105da565b61057e565b6103c1565b610357565b61027d565b6101b3565b6001600160e01b03198116036101ae57565b600080fd5b346101ae5760203660031901126101ae5760206004356101d28161019c565b63ffffffff60e01b166380ac58cd60e01b8114908115610210575b81156101ff575b506040519015158152f35b6301ffc9a760e01b149050386101f4565b635b5e139f60e01b811491506101ed565b60005b8381106102345750506000910152565b8181015183820152602001610224565b9060209161025d81518092818552858086019101610221565b601f01601f1916010190565b90602061027a928181520190610244565b90565b346101ae5760003660031901126101ae576040516000805461029e816110a5565b808452906001811690811561033357506001146102d6575b6102d2836102c6818503826104e7565b60405191829182610269565b0390f35b60008080527f290decd9548b62a8d60345a988386fc84ba6bc95484008f6362f93160ef3e563939250905b808210610319575090915081016020016102c66102b6565b919260018160209254838588010152019101909291610301565b60ff191660208086019190915291151560051b840190910191506102c690506102b6565b346101ae5760203660031901126101ae5760043561037481611526565b506000526004602052602060018060a01b0360406000205416604051908152f35b600435906001600160a01b03821682036101ae57565b602435906001600160a01b03821682036101ae57565b346101ae5760403660031901126101ae576103da610395565b602435906103e782611526565b331515806104be575b8061047c575b61046757610465926104469181906001600160a01b0385811691167f8c5be1e5ebec7d5bd14f71427d1e84f3dd0314c0f7b2291e5b200ac8c7c3b925600080a46000526004602052604060002090565b80546001600160a01b0319166001600160a01b03909216919091179055565b005b63a9fbf51f60e01b6000523360045260246000fd5b5060ff6104b63361049f8460018060a01b03166000526005602052604060002090565b9060018060a01b0316600052602052604060002090565b5416156103f6565b506001600160a01b0381163314156103f0565b634e487b7160e01b600052604160045260246000fd5b90601f801991011681019081106001600160401b0382111761050857604052565b6104d1565b6040519061051c60a0836104e7565b565b6001600160401b03811161050857601f01601f191660200190565b81601f820112156101ae576020813591016105538261051e565b9261056160405194856104e7565b828452828201116101ae5781600092602092838601378301015290565b346101ae5760403660031901126101ae57610597610395565b602435906001600160401b0382116101ae576105ce60ff916105c86105c26020953690600401610539565b916112e9565b906115a2565b54166040519015158152f35b346101ae5760203660031901126101ae576105f3610395565b7f6599c9bcbc8fbc8e7a91a3228f62cbd46e9e11ae810bbc939daab7c8741db2c0546001600160a01b0316610665577f6599c9bcbc8fbc8e7a91a3228f62cbd46e9e11ae810bbc939daab7c8741db2c080546001600160a01b0319166001600160a01b03831617905561046590611618565b60405162461bcd60e51b8152602060048201526013602482015272105b1c9958591e481a5b9a5d1a585b1a5e9959606a1b6044820152606490fd5b60609060031901126101ae576004356001600160a01b03811681036101ae57906024356001600160a01b03811681036101ae579060443590565b346101ae576104656106eb366106a0565b91611162565b602060408183019282815284518094520192019060005b8181106107155750505090565b8251845260209384019390920191600101610708565b346101ae5760203660031901126101ae57610780610747610395565b6001600160a01b031660009081527f6599c9bcbc8fbc8e7a91a3228f62cbd46e9e11ae810bbc939daab7c8741db2bb6020526040902090565b60405190816020825491828152019160005260206000209060005b8181106107be576102d2856107b2818703826104e7565b604051918291826106f1565b825484526020909301926001928301920161079b565b346101ae5760403660031901126101ae576004356001600160401b0381116101ae57610804903690600401610539565b6024356001600160401b0381116101ae57610823903690600401610539565b9061082d33611dcf565b1561099d57805115610966576108458251151561126f565b60ff60046108528361155d565b01541661092a576108f5906108698351151561126f565b61089f61087461050d565b828152602081018590523360408201524260608201526001608082015261089a8361155d565b6117ed565b6108f06108cc7f6599c9bcbc8fbc8e7a91a3228f62cbd46e9e11ae810bbc939daab7c8741db2bf5461192a565b7f6599c9bcbc8fbc8e7a91a3228f62cbd46e9e11ae810bbc939daab7c8741db2bf55565b6112c9565b7f2bf02f0a6907f1bc77e52f89251be064a31efe5433ea74b9ae46dcd98657501960405180610925339582610269565b0390a3005b60405162461bcd60e51b8152602060048201526014602482015273426164676520616c72656164792065786973747360601b6044820152606490fd5b60405162461bcd60e51b815260206004820152600f60248201526e125b9d985b1a59081d185cdac81251608a1b6044820152606490fd5b60405162461bcd60e51b815260206004820152602660248201527f4f6e6c792076616c696461746f72732063616e2063616c6c20746869732066756044820152653731ba34b7b760d11b6064820152608490fd5b346101ae57610465610a02366106a0565b9060405192610a126020856104e7565b60008452610a21838383611162565b33611b37565b60206003198201126101ae57600435906001600160401b0382116101ae5761027a91600401610539565b346101ae57602060ff6004610a6d610a6836610a27565b61155d565b0154166040519015158152f35b346101ae5760203660031901126101ae57610a93610395565b7f6599c9bcbc8fbc8e7a91a3228f62cbd46e9e11ae810bbc939daab7c8741db2c054336001600160a01b0390911603610acf5761046590611618565b60405162461bcd60e51b815260206004820152602160248201527f4f6e6c79206f776e65722063616e2063616c6c20746869732066756e6374696f6044820152603760f91b6064820152608490fd5b346101ae5760203660031901126101ae576020610b3c600435611526565b6040516001600160a01b039091168152f35b346101ae5760203660031901126101ae576001600160a01b03610b6f610395565b168015610b8e5760005260036020526020604060002054604051908152f35b6322718ad960e21b600052600060045260246000fd5b346101ae5760003660031901126101ae576040516000600154610bc6816110a5565b80845290600181169081156103335750600114610bed576102d2836102c6818503826104e7565b600160009081527fb10e2d527612073b26eecdfd717e6a320cf44b4afac2b0732d9fcbe2b7fa0cf6939250905b808210610c32575090915081016020016102c66102b6565b919260018160209254838588010152019101909291610c1a565b346101ae5760403660031901126101ae57610c65610395565b60243590811515908183036101ae576001600160a01b038116928315610cf057610cb1610cc29233600052600560205260406000209060018060a01b0316600052602052604060002090565b9060ff801983541691151516179055565b6040519081527f17307eab39ab6107e8899845ad3d59bd9653f200f220920489ca2b5937696c3160203392a3005b83630b61174360e31b60005260045260246000fd5b346101ae5760003660031901126101ae57610d1e61194f565b60405180916020820160208352815180915260206040840192019060005b818110610d4a575050500390f35b82516001600160a01b0316845285945060209384019390920191600101610d3c565b346101ae5760803660031901126101ae57610d85610395565b610d8d6103ab565b90604435606435926001600160401b0384116101ae57610db4610465943690600401610539565b92610a21838383611162565b346101ae5760203660031901126101ae576102d2610df1610dec600435610de681611526565b50611bd3565b611c18565b604051918291602083526020830190610244565b346101ae5760203660031901126101ae576102d2610df1600435611bd3565b346101ae5760403660031901126101ae57602060ff6105ce610e44610395565b610e4c6103ab565b6001600160a01b0391821660009081526005865260408082209290931681526020919091522090565b346101ae576102d2610df1610dec36610a27565b346101ae5760403660031901126101ae576004356001600160401b0381116101ae57610eb9903690600401610539565b6024356001600160401b0381116101ae57610ed8903690600401610539565b9060405160208101903360601b8252610f106034828551610eff8184840160208a01610221565b81010301601f1981018352826104e7565b51902060405160208101917f19457468657265756d205369676e6564204d6573736167653a0a3332000000008352603c820152603c8152610f52605c826104e7565b5190206041835103611027576020838101516040808601516060808801518351968752600090811a878701529286019390935291840191909152808052909160809060015afa1561102257600051610fa983611f96565b610fcf57610fc5610fca91610fc061046595612043565b611dcf565b611322565b61136e565b60405162461bcd60e51b815260206004820152602560248201527f446569642076616c696461746f72207369676e617475726520616c7265616479604482015264081d5cd95960da1b6064820152608490fd5b611a03565b60405162461bcd60e51b815260206004820152601860248201527f496e76616c6964207369676e6174757265206c656e67746800000000000000006044820152606490fd5b346101ae5760203660031901126101ae576020611087610395565b61109b6000199161109661194f565b612149565b6040519114158152f35b90600182811c921680156110d5575b60208310146110bf57565b634e487b7160e01b600052602260045260246000fd5b91607f16916110b4565b600092918154916110ef836110a5565b8083529260018116908115611145575060011461110b57505050565b60009081526020812093945091925b83831061112b575060209250010190565b60018160209294939454838587010152019101919061111a565b915050602093945060ff929192191683830152151560051b010190565b91906001600160a01b0381168015611259576000838152600260205260408120549091906001600160a01b0316806111d6575050506111a390823391611de3565b6001600160a01b0390811692168083036111bc57505050565b6364283d7b60e01b60005260045260245260445260646000fd5b6084949293507fa3bf7e462a2d4210907087d06c92c20fa2e64699b3dbd3d01bff6ae5b7b9ca6e6040519480a462461bcd60e51b815260206004820152602e60248201527f4261646765732061726520736f756c626f756e6420616e642063616e6e6f742060448201526d1899481d1c985b9cd9995c9c995960921b6064820152fd5b633250574960e11b600052600060045260246000fd5b1561127657565b60405162461bcd60e51b8152602060048201526014602482015273496e76616c6964206d657461646174612055524960601b6044820152606490fd5b906112c560209282815194859201610221565b0190565b6112e190602060405192828480945193849201610221565b810103902090565b6001600160a01b031660009081527f6599c9bcbc8fbc8e7a91a3228f62cbd46e9e11ae810bbc939daab7c8741db2bd6020526040902090565b1561132957565b60405162461bcd60e51b815260206004820152601b60248201527f496e76616c69642076616c696461746f72207369676e617475726500000000006044820152606490fd5b60ff600461137b8361155d565b015416156114ea576113ae6113a96113a561139e611398336112e9565b856115a2565b5460ff1690565b1590565b611c36565b7f6599c9bcbc8fbc8e7a91a3228f62cbd46e9e11ae810bbc939daab7c8741db2be54906114016113dd8361192a565b7f6599c9bcbc8fbc8e7a91a3228f62cbd46e9e11ae810bbc939daab7c8741db2be55565b61143d81611438846000527f6599c9bcbc8fbc8e7a91a3228f62cbd46e9e11ae810bbc939daab7c8741db2bc602052604060002090565b61171c565b3360009081527f6599c9bcbc8fbc8e7a91a3228f62cbd46e9e11ae810bbc939daab7c8741db2bb60205260409020611476908390611c82565b61149861148b611485336112e9565b836115a2565b805460ff19166001179055565b6114a28233611cab565b6114b46114ae82611c18565b916112c9565b907f8909e684a7141409bda2f017228e3508cb0f060d44d5645bfaa42072ae8d38fc604051806114e5339482610269565b0390a4565b60405162461bcd60e51b815260206004820152601460248201527310985919d948191bd95cc81b9bdd08195e1a5cdd60621b6044820152606490fd5b6000818152600260205260409020546001600160a01b0316908115611549575090565b637e27328960e01b60005260045260246000fd5b6020611576918160405193828580945193849201610221565b81017f6599c9bcbc8fbc8e7a91a3228f62cbd46e9e11ae810bbc939daab7c8741db2ba81520301902090565b6020906115bc928260405194838680955193849201610221565b82019081520301902090565b634e487b7160e01b600052603260045260246000fd5b6000805160206121fd83398151915254811015611613576000805160206121fd83398151915260005260206000200190600090565b6115c8565b6000196116278261109661194f565b1461162f5750565b60008051602061221d83398151915254600160401b811015610508576001810160008051602061221d83398151915255600060008051602061221d833981519152548210156116135760008051602061221d83398151915290527f732a11aa9b876e93e6156ba9356f45a59d36f4e574a1660f5df7ed7d1c03f3090180546001600160a01b0319166001600160a01b03909216919091179055565b601f82116116d757505050565b6000526020600020906020601f840160051c83019310611712575b601f0160051c01905b818110611706575050565b600081556001016116fb565b90915081906116f2565b91909182516001600160401b038111610508576117438161173d84546110a5565b846116ca565b6020601f8211600114611784578190611775939495600092611779575b50508160011b916000199060031b1c19161790565b9055565b015190503880611760565b601f1982169061179984600052602060002090565b9160005b8181106117d5575095836001959697106117bc575b505050811b019055565b015160001960f88460031b161c191690553880806117b2565b9192602060018192868b01518155019401920161179d565b91909182519283516001600160401b038111610508576118178161181185546110a5565b856116ca565b6020601f82116001146118b1576004926118538361189e9460809461051c999a6000926117795750508160011b916000199060031b1c19161790565b85555b61186760208201516001870161171c565b60408101516002860180546001600160a01b0319166001600160a01b03909216919091179055606081015160038601550151151590565b91019060ff801983541691151516179055565b601f198216956118c685600052602060002090565b9660005b81811061191257508361051c97986080946004979461189e97600195106118f9575b505050811b018555611856565b015160001960f88460031b161c191690553880806118ec565b838301518955600190980197602093840193016118ca565b60001981146119395760010190565b634e487b7160e01b600052601160045260246000fd5b6040519060008051602061221d83398151915254808352826020810160008051602061221d83398151915260005260206000209260005b81811061199b57505061051c925003836104e7565b84546001600160a01b0316835260019485019487945060209093019201611986565b908160209103126101ae575161027a8161019c565b6001600160a01b03918216815291166020820152604081019190915260806060820181905261027a92910190610244565b6040513d6000823e3d90fd5b3d15611a3a573d90611a208261051e565b91611a2e60405193846104e7565b82523d6000602084013e565b606090565b9092833b611a4e575b50505050565b604051630a85bd0160e11b81529260209284928392611a7392600090600486016119d2565b038160006001600160a01b0387165af160009181611b06575b50611ac85750611a9a611a0f565b8051919082611ac157633250574960e11b6000526001600160a01b03821660045260246000fd5b6020915001fd5b6001600160e01b03191663757a42ff60e11b01611ae9575038808080611a48565b633250574960e11b6000526001600160a01b031660045260246000fd5b611b2991925060203d602011611b30575b611b2181836104e7565b8101906119bd565b9038611a8c565b503d611b17565b939193843b611b48575b5050505050565b611b696020936040519586948594630a85bd0160e11b8652600486016119d2565b038160006001600160a01b0387165af160009181611bb2575b50611b905750611a9a611a0f565b6001600160e01b03191663757a42ff60e11b01611ae957503880808080611b41565b611bcc91925060203d602011611b3057611b2181836104e7565b9038611b82565b6000527f6599c9bcbc8fbc8e7a91a3228f62cbd46e9e11ae810bbc939daab7c8741db2bc602052611c1161027a6040600020604051928380926110df565b03826104e7565b61027a6001611c29611c119361155d565b01604051928380926110df565b15611c3d57565b60405162461bcd60e51b815260206004820152601b60248201527f5573657220616c726561647920686173207468697320626164676500000000006044820152606490fd5b805490600160401b82101561050857600182018082558210156116135760005260206000200155565b60405190916020611cbc81846104e7565b600083526001600160a01b0384169081156112595760008381526002825260408120549092906001600160a01b031680611d2b57505050611cfe908285611de3565b6001600160a01b0316611d155761051c9233611a3f565b6339e3563760e11b600052600060045260246000fd5b90608494917fa3bf7e462a2d4210907087d06c92c20fa2e64699b3dbd3d01bff6ae5b7b9ca6e6040519580a462461bcd60e51b82526004820152602e60248201527f4261646765732061726520736f756c626f756e6420616e642063616e6e6f742060448201526d1899481d1c985b9cd9995c9c995960921b6064820152fd5b611dbf906000526004602052604060002090565b80546001600160a01b0319169055565b611dde6000199161109661194f565b141590565b6000828152600260205260409020546001600160a01b0390811693908116611eba575b506001600160a01b03831680611e8c575b6001600160a01b03821691611e409083611e68575b610446856000526002602052604060002090565b7fddf252ad1be2c89b69c2b068fc378daa952ba7f163c4a11628f55a4df523b3ef600080a490565b6001600160a01b038116600090815260036020526040902060018154019055611e2c565b611e9583611dab565b6001600160a01b03841660009081526003602052604090208054600019019055611e17565b611ed56001600160a01b0382168015159081611f1f57501590565b15611e0657826001600160a01b038516611efd57637e27328960e01b60005260045260246000fd5b63177e802f60e01b6000526001600160a01b0390911660045260245260446000fd5b6001600160a01b03871680821492508215611f60575b508115611f4157501590565b6000868152600460205260409020546001600160a01b03161490501590565b909150600052600560205260ff611f8d8460406000209060018060a01b0316600052602052604060002090565b54169038611f35565b6000805160206121fd83398151915254906001600160401b0382116105085760405191611fc960208260051b01846104e7565b8083526000805160206121fd83398151915260009081527f6143f10953e4fbed1522382278ab1322081ef721720d4eac45504d08f839dd17602085015b83831061201e5750505050611dde9060001992612190565b60016020819260405161203581611c1181896110df565b815201920192019190612006565b906000805160206121fd83398151915254600160401b8110156105085780600161207d92016000805160206121fd833981519152556115de565b61211f5782516001600160401b0381116105085761209f8161173d84546110a5565b6020601f82116001146120d05781906117759394956000926117795750508160011b916000199060031b1c19161790565b601f198216906120e584600052602060002090565b9160005b818110612107575095836001959697106117bc57505050811b019055565b9192602060018192868b0151815501940192016120e9565b634e487b7160e01b600052600060045260246000fd5b80518210156116135760209160051b010190565b9060005b8251811015612187576001600160a01b036121688285612135565b51166001600160a01b038316146121815760010161214d565b91505090565b50505060001990565b9060005b8251811015612187576121a78184612135565b516040516121c560208281610eff8183019687815193849201610221565b51902060405160208101906121ec816121de84886112b2565b03601f1981018352826104e7565b519020146121815760010161219456fec48fc816533f30037aec7cfb5ae61f31811475ef705fc209cf71834561dd1813c48fc816533f30037aec7cfb5ae61f31811475ef705fc209cf71834561dd1812a164736f6c634300081c000a",
  "linkReferences": {},
  "deployedLinkReferences": {}
}