{
  "_format": "hh-sol-artifact-1",
  "contractName": "StreakTracker",
  "sourceName": "contracts/social/StreakTracker.sol",
  "abi": [
    {
      "inputs": [
        {
          "internalType": "address",
          "name": "_owner",
          "type": "address"
        }
      ],
      "stateMutability": "nonpayable",
      "type": "constructor"
    },
    {
      "anonymous": false,
      "inputs": [
        {
          "indexed": true,
          "internalType": "address",
          "name": "user",
          "type": "address"
        },
        {
          "indexed": false,
          "internalType": "uint256",
          "name": "day",
          "type": "uint256"
        },
        {
          "indexed": false,
          "internalType": "uint256",
          "name": "currentStreak",
          "type": "uint256"
        },
        {
          "indexed": false,
          "internalType": "uint256",
          "name": "longestStreak",
          "type": "uint256"
        }
      ],
      "name": "CheckIn",
      "type": "event"
    },
    {
      "anonymous": false,
      "inputs": [
        {
          "indexed": true,
          "internalType": "address",
          "name": "user",
          "type": "address"
        },
        {
          "indexed": false,
          "internalType": "uint256",
          "name": "previousStreak",
          "type": "uint256"
        },
        {
          "indexed": false,
          "internalType": "string",
          "name": "reason",
          "type": "string"
        }
      ],
      "name": "StreakReset",
      "type": "event"
    },
    {
      "inputs": [],
      "name": "EPOCH_TIMESTAMP",
      "outputs": [
        {
          "internalType": "uint256",
          "name": "",
          "type": "uint256"
        }
      ],
      "stateMutability": "view",
      "type": "function"
    },
    {
      "inputs": [],
      "name": "MAX_STREAK",
      "outputs": [
        {
          "internalType": "uint256",
          "name": "",
          "type": "uint256"
        }
      ],
      "stateMutability": "view",
      "type": "function"
    },
    {
      "inputs": [],
      "name": "SECONDS_PER_DAY",
      "outputs": [
        {
          "internalType": "uint256",
          "name": "",
          "type": "uint256"
        }
      ],
      "stateMutability": "view",
      "type": "function"
    },
    {
      "inputs": [],
      "name": "checkIn",
      "outputs": [
        {
          "internalType": "uint256",
          "name": "currentStreak",
          "type": "uint256"
        },
        {
          "internalType": "uint256",
          "name": "longestStreak",
          "type": "uint256"
        }
      ],
      "stateMutability": "nonpayable",
      "type": "function"
    },
    {
      "inputs": [],
      "name": "getCurrentDay",
      "outputs": [
        {
          "internalType": "uint256",
          "name": "",
          "type": "uint256"
        }
      ],
      "stateMutability": "view",
      "type": "function"
    },
    {
      "inputs": [
        {
          "internalType": "address",
          "name": "user",
          "type": "address"
        }
      ],
      "name": "getCurrentStreak",
      "outputs": [
        {
          "internalType": "uint256",
          "name": "",
          "type": "uint256"
        }
      ],
      "stateMutability": "view",
      "type": "function"
    },
    {
      "inputs": [
        {
          "internalType": "uint256",
          "name": "timestamp",
          "type": "uint256"
        }
      ],
      "name": "getDayFromTimestamp",
      "outputs": [
        {
          "internalType": "uint256",
          "name": "",
          "type": "uint256"
        }
      ],
      "stateMutability": "pure",
      "type": "function"
    },
    {
      "inputs": [
        {
          "internalType": "address",
          "name": "user",
          "type": "address"
        }
      ],
      "name": "getLongestStreak",
      "outputs": [
        {
          "internalType": "uint256",
          "name": "",
          "type": "uint256"
        }
      ],
      "stateMutability": "view",
      "type": "function"
    },
    {
      "inputs": [
        {
          "internalType": "address",
          "name": "user",
          "type": "address"
        }
      ],
      "name": "getTotalCheckIns",
      "outputs": [
        {
          "internalType": "uint256",
          "name": "",
          "type": "uint256"
        }
      ],
      "stateMutability": "view",
      "type": "function"
    },
    {
      "inputs": [
        {
          "internalType": "address",
          "name": "user",
          "type": "address"
        }
      ],
      "name": "getUserStreakInfo",
      "outputs": [
        {
          "components": [
            {
              "internalType": "uint256",
              "name": "lastCheckInDay",
              "type": "uint256"
            },
            {
              "internalType": "uint256",
              "name": "currentStreak",
              "type": "uint256"
            },
            {
              "internalType": "uint256",
              "name": "longestStreak",
              "type": "uint256"
            },
            {
              "internalType": "uint256",
              "name": "totalCheckIns",
              "type": "uint256"
            },
            {
              "internalType": "uint256",
              "name": "firstCheckInDay",
              "type": "uint256"
            }
          ],
          "internalType": "struct StreakTracker.UserStreak",
          "name": "streak",
          "type": "tuple"
        },
        {
          "internalType": "uint256",
          "name": "currentDay",
          "type": "uint256"
        },
        {
          "internalType": "uint256",
          "name": "daysSinceLastCheckIn",
          "type": "uint256"
        },
        {
          "internalType": "bool",
          "name": "canCheckInToday",
          "type": "bool"
        }
      ],
      "stateMutability": "view",
      "type": "function"
    },
    {
      "inputs": [],
      "name": "owner",
      "outputs": [
        {
          "internalType": "address",
          "name": "",
          "type": "address"
        }
      ],
      "stateMutability": "view",
      "type": "function"
    },
    {
      "inputs": [
        {
          "internalType": "address",
          "name": "user",
          "type": "address"
        },
        {
          "internalType": "string",
          "name": "reason",
          "type": "string"
        }
      ],
      "name": "resetUserStreak",
      "outputs": [],
      "stateMutability": "nonpayable",
      "type": "function"
    },
    {
      "inputs": [
        {
          "internalType": "address",
          "name": "newOwner",
          "type": "address"
        }
      ],
      "name": "transferOwnership",
      "outputs": [],
      "stateMutability": "nonpayable",
      "type": "function"
    },
    {
      "inputs": [
        {
          "internalType": "address",
          "name": "",
          "type": "address"
        }
      ],
      "name": "userStreaks",
      "outputs": [
        {
          "internalType": "uint256",
          "name": "lastCheckInDay",
          "type": "uint256"
        },
        {
          "internalType": "uint256",
          "name": "currentStreak",
          "type": "uint256"
        },
        {
          "internalType": "uint256",
          "name": "longestStreak",
          "type": "uint256"
        },
        {
          "internalType": "uint256",
          "name": "totalCheckIns",
          "type": "uint256"
        },
        {
          "internalType": "uint256",
          "name": "firstCheckInDay",
          "type": "uint256"
        }
      ],
      "stateMutability": "view",
      "type": "function"
    }
  ],
  "bytecode": "0x60803460ce57601f6109d638819003918201601f19168301916001600160401b0383118484101760d35780849260209460405283398101031260ce57516001600160a01b0381169081900360ce578015607557600180546001600160a01b0319169190911790556040516108ec90816100ea8239f35b60405162461bcd60e51b815260206004820152602b60248201527f53747265616b547261636b65723a204f776e65722063616e6e6f74206265207a60448201526a65726f206164647265737360a81b6064820152608490fd5b600080fd5b634e487b7160e01b600052604160045260246000fdfe6080604052600436101561001257600080fd5b60003560e01c8063183ff0851461056d5780633c8bbe85146105305780633e6968b6146105155780633ea2b220146104f857806342c6703a146104cd5780636dec6b851461048457806374f0314f14610466578063843e3e65146103575780638da5cb5b1461032e578063c6d7935b1461030f578063ce16dfcf1461020c578063d291d1f2146101a6578063db9f9499146101695763f2fde38b146100b657600080fd5b34610164576020366003190112610164576100cf610789565b600154906100e7336001600160a01b0384161461087a565b6001600160a01b0316908115610107576001600160a01b03191617600155005b60405162461bcd60e51b815260206004820152602f60248201527f53747265616b547261636b65723a204e6577206f776e65722063616e6e6f742060448201526e6265207a65726f206164647265737360881b6064820152608490fd5b600080fd5b34610164576020366003190112610164576001600160a01b0361018a610789565b1660005260006020526020600260406000200154604051908152f35b34610164576020366003190112610164576001600160a01b036101c7610789565b16600052600060205260a06040600020805490600181015490600281015460046003830154920154926040519485526020850152604084015260608301526080820152f35b3461016457604036600319011261016457610225610789565b6024359067ffffffffffffffff821161016457366023830112156101645781600401359067ffffffffffffffff821161016457366024838501011161016457600092839161027e60018060a01b0360015416331461087a565b6001600160a01b03168083526020839052604083206001810180549195909390826102af575b505050505555600080f35b7fcef64b3f8bd6bfc3c826d9a8e3f00c679f6eb2fc6120b4967fab9e71cb489b8a9281606092602460405195869485526040602086015282604086015201848401378181018301889052601f01601f19168101030190a2848080806102a4565b3461016457600036600319011261016457602060405163659200808152f35b34610164576000366003190112610164576001546040516001600160a01b039091168152602090f35b3461016457602036600319011261016457610370610789565b60009081608061037e6107b7565b828152826020820152826040820152826060820152015260018060a01b0316815280602052604081206103af6107b7565b908054825260018101549060208301918252600281015490604084019182526004600382015491606086019283520154608085019081526103ee61079f565b91855180156000146104385750610100965082936001955b6040519751885251602088015251604087015251606086015251608085015260a084015260c0830152151560e0820152f35b830383811161045257610100975093838751141595610406565b634e487b7160e01b88526011600452602488fd5b34610164576000366003190112610164576020604051620151808152f35b3461016457602036600319011261016457600435636592007f1981019081116104b7576020906201518060405191048152f35b634e487b7160e01b600052601160045260246000fd5b346101645760203660031901126101645760206104f06104eb610789565b6107ed565b604051908152f35b346101645760003660031901126101645760206040516127108152f35b346101645760003660031901126101645760206104f061079f565b34610164576020366003190112610164576001600160a01b03610551610789565b1660005260006020526020600360406000200154604051908152f35b3461016457600036600319011261016457600061058861079f565b338252816020526040822091825490828214610734578183106106da57816106375750506001908060048401555b80835581600184015560038301805490600182018092116104b75760409484926002925501805480831160001461062e57505581905b835190815282602082015281848201527ff70c8ccfb49937cb9079ffa719be60366bdb8f901313f28dd3da4e482977a7fa60603392a282519182526020820152f35b915050906105ec565b600182018092116106c65750810361065f576001820154600181018091116104b757906105b6565b600182015480610673575b506001906105b6565b60405190815260406020820152600a6040820152696d69737365645f64617960b01b60608201527fcef64b3f8bd6bfc3c826d9a8e3f00c679f6eb2fc6120b4967fab9e71cb489b8a60803392a28261066a565b634e487b7160e01b81526011600452602490fd5b60405162461bcd60e51b815260206004820152602c60248201527f53747265616b547261636b65723a2043616e6e6f7420636865636b20696e206660448201526b6f722070617374206461797360a01b6064820152608490fd5b60405162461bcd60e51b815260206004820152602760248201527f53747265616b547261636b65723a20416c726561647920636865636b656420696044820152666e20746f64617960c81b6064820152608490fd5b600435906001600160a01b038216820361016457565b636592007f1942014281116104b75762015180900490565b6040519060a0820182811067ffffffffffffffff8211176107d757604052565b634e487b7160e01b600052604160045260246000fd5b6001600160a01b0316600090815260208190526040902061080c6107b7565b8154815260046001830154926020830193845260028101546040840152600381015460608401520154608082015261084261079f565b905180156108725781811461086c5760001982019182116104b757146108685750600090565b5190565b50505190565b505050600090565b1561088157565b60405162461bcd60e51b815260206004820152603060248201527f53747265616b547261636b65723a204f6e6c79206f776e65722063616e20636160448201526f3636103a3434b990333ab731ba34b7b760811b6064820152608490fdfea164736f6c634300081c000a",
  "linkReferences": {},
  "deployedLinkReferences": {}
}