{
  "_format": "hh-sol-artifact-1",
  "contractName": "DEiDProxy",
  "sourceName": "contracts/core/DEiDProxy.sol",
  "abi": [
    {
      "inputs": [],
      "stateMutability": "nonpayable",
      "type": "constructor"
    },
    {
      "anonymous": false,
      "inputs": [
        {
          "indexed": true,
          "internalType": "address",
          "name": "facetAddress",
          "type": "address"
        },
        {
          "indexed": false,
          "internalType": "bytes4[]",
          "name": "functionSelectors",
          "type": "bytes4[]"
        },
        {
          "indexed": false,
          "internalType": "enum IDEiDProxy.FacetCutAction",
          "name": "action",
          "type": "uint8"
        }
      ],
      "name": "FacetCutEvent",
      "type": "event"
    },
    {
      "stateMutability": "payable",
      "type": "fallback"
    },
    {
      "inputs": [
        {
          "internalType": "address",
          "name": "_init",
          "type": "address"
        }
      ],
      "name": "construct",
      "outputs": [],
      "stateMutability": "nonpayable",
      "type": "function"
    },
    {
      "inputs": [
        {
          "internalType": "bytes4",
          "name": "_functionSelector",
          "type": "bytes4"
        }
      ],
      "name": "facetAddress",
      "outputs": [
        {
          "internalType": "address",
          "name": "",
          "type": "address"
        }
      ],
      "stateMutability": "view",
      "type": "function"
    },
    {
      "inputs": [],
      "name": "facetAddresses",
      "outputs": [
        {
          "internalType": "address[]",
          "name": "",
          "type": "address[]"
        }
      ],
      "stateMutability": "view",
      "type": "function"
    },
    {
      "inputs": [
        {
          "components": [
            {
              "internalType": "address",
              "name": "facetAddress",
              "type": "address"
            },
            {
              "internalType": "bytes4[]",
              "name": "functionSelectors",
              "type": "bytes4[]"
            },
            {
              "internalType": "enum IDEiDProxy.FacetCutAction",
              "name": "action",
              "type": "uint8"
            }
          ],
          "internalType": "struct IDEiDProxy.FacetCutStruct[]",
          "name": "_facetCuts",
          "type": "tuple[]"
        },
        {
          "internalType": "address",
          "name": "_init",
          "type": "address"
        },
        {
          "internalType": "bytes",
          "name": "_calldata",
          "type": "bytes"
        }
      ],
      "name": "facetCut",
      "outputs": [],
      "stateMutability": "nonpayable",
      "type": "function"
    },
    {
      "inputs": [
        {
          "internalType": "address",
          "name": "_facet",
          "type": "address"
        }
      ],
      "name": "facetFunctionSelectors",
      "outputs": [
        {
          "internalType": "bytes4[]",
          "name": "",
          "type": "bytes4[]"
        }
      ],
      "stateMutability": "view",
      "type": "function"
    },
    {
      "inputs": [],
      "name": "facetsStruct",
      "outputs": [
        {
          "internalType": "address",
          "name": "",
          "type": "address"
        },
        {
          "internalType": "bytes4[]",
          "name": "",
          "type": "bytes4[]"
        }
      ],
      "stateMutability": "view",
      "type": "function"
    },
    {
      "inputs": [],
      "name": "owner",
      "outputs": [
        {
          "internalType": "address",
          "name": "",
          "type": "address"
        }
      ],
      "stateMutability": "view",
      "type": "function"
    },
    {
      "inputs": [
        {
          "internalType": "address",
          "name": "newOwner",
          "type": "address"
        }
      ],
      "name": "transferOwnership",
      "outputs": [],
      "stateMutability": "nonpayable",
      "type": "function"
    },
    {
      "stateMutability": "payable",
      "type": "receive"
    }
  ],
  "bytecode": "0x60808060405234602757600080546001600160a01b03191633179055611354908161002d8239f35b600080fdfe60806040526004361015610015575b36610bba57005b60003560e01c80631b1975c71461009557806352ef6b2c146100905780638da5cb5b1461008b57806397f8513214610086578063adfca15e14610081578063cdffacc61461007c578063f2fde38b146100775763f812033f0361000e57610432565b610399565b610354565b6102ee565b610261565b6101ea565b61015e565b346100d85760003660031901126100d8576100ae61078e565b604080516001600160a01b0390931683526020830181905282916100d4918301906100dd565b0390f35b600080fd5b906020808351928381520192019060005b8181106100fb5750505090565b82516001600160e01b0319168452602093840193909201916001016100ee565b602060408183019282815284518094520192019060005b81811061013f5750505090565b82516001600160a01b0316845260209384019390920191600101610132565b346100d85760003660031901126100d85760405180602060025491828152019060026000527f405787fa12a823e0f2b7631cc41b3ba8828b3321ca811111fa75cd3aa3bb5ace9060005b8181106101cb576100d4856101bf8187038261050c565b6040519182918261011b565b82546001600160a01b03168452602090930192600192830192016101a8565b346100d85760003660031901126100d8576000546040516001600160a01b039091168152602090f35b6001600160a01b038116036100d857565b6024359061023182610213565b565b9181601f840112156100d85782359167ffffffffffffffff83116100d857602083818601950101116100d857565b346100d85760603660031901126100d85760043567ffffffffffffffff81116100d857366023820112156100d85780600401359067ffffffffffffffff82116100d8573660248360051b830101116100d8576102bb610224565b906044359167ffffffffffffffff83116100d8576102ec936102e36024943690600401610233565b94909301610855565b005b346100d85760203660031901126100d85760043561030b81610213565b60018060a01b031660005260036020526100d461032b6040600020610569565b6040519182916020835260208301906100dd565b35906001600160e01b0319821682036100d857565b346100d85760203660031901126100d85760043563ffffffff60e01b81168091036100d8576000526001602052602060018060a01b0360406000205416604051908152f35b346100d85760203660031901126100d8576004356103b681610213565b600054906103ce336001600160a01b038416146107ff565b6001600160a01b03169081156103ee576001600160a01b03191617600055005b606460405162461bcd60e51b815260206004820152602060248201527f4e6577206f776e65722063616e6e6f74206265207a65726f20616464726573736044820152fd5b346100d85760203660031901126100d85760043561044f81610213565b6000546001600160a01b03166104bb57600080546001600160a01b031916331790556001600160a01b03811661048157005b6000806102ec9260405160208101906370e39c9560e11b8252600481526104a960248261050c565b51915af46104b5610b36565b50610b76565b60405162461bcd60e51b8152602060048201526013602482015272105b1c9958591e481a5b9a5d1a585b1a5e9959606a1b6044820152606490fd5b634e487b7160e01b600052604160045260246000fd5b90601f8019910116810190811067ffffffffffffffff82111761052e57604052565b6104f6565b634e487b7160e01b600052603260045260246000fd5b60025481101561056457600260005260206000200190600090565b610533565b604051815480825290929183906105896020830191600052602060002090565b926000905b8060078301106106d1576102319454918181106106b2575b818110610693575b818110610674575b818110610655575b818110610636575b818110610617575b8181106105f9575b106105e4575b50038361050c565b6001600160e01b0319168152602001386105dc565b602083811b6001600160e01b031916855290936001910193016105d6565b604083901b6001600160e01b03191684529260019060200193016105ce565b606083901b6001600160e01b03191684529260019060200193016105c6565b608083901b6001600160e01b03191684529260019060200193016105be565b60a083901b6001600160e01b03191684529260019060200193016105b6565b60c083901b6001600160e01b03191684529260019060200193016105ae565b6001600160e01b031960e084901b1684529260019060200193016105a6565b91600891935061010060019161078087546106f7838260e01b63ffffffff60e01b169052565b60c081901b6001600160e01b031916602084015260a081901b6001600160e01b0319166040840152608081901b6001600160e01b0319166060840152606081901b6001600160e01b0319166080840152604081901b6001600160e01b03191660a0840152602081901b6001600160e01b03191660c08401526001600160e01b03191660e0830152565b01940192018592939161058e565b600254156107da5760018060a01b037f405787fa12a823e0f2b7631cc41b3ba8828b3321ca811111fa75cd3aa3bb5ace5416908160005260036020526107d76040600020610569565b90565b6040519060206107ea818461050c565b60008352601f19810190369084013760009190565b1561080657565b60405162461bcd60e51b815260206004820152602160248201527f4f6e6c79206f776e65722063616e2063616c6c20746869732066756e6374696f6044820152603760f91b6064820152608490fd5b909392919361086f60018060a01b036000541633146107ff565b60005b8181106108b3575050506001600160a01b03831661088f57505050565b6102319260009283926108a760405180938193610b28565b03915af46104b5610b36565b806108c160019284866109e2565b7fb8cc25bc4ca8c536e4b602e7445e50b6505a4af37f999c2773f63034140fa5f961094b60408301926108f384610a24565b6108fc81610a04565b6109685761092961090c82610a31565b61092361091c6020850185610a3b565b3691610a71565b906111a7565b61095f61094361093883610a31565b926020810190610a3b565b939095610a24565b604051938493898060a01b03169684610ad0565b0390a201610872565b8561097285610a24565b61097b81610a04565b036109a7576109a261098c82610a31565b61099c61091c6020850185610a3b565b90611022565b610929565b60026109b285610a24565b6109bb81610a04565b03610929576109a26109cc82610a31565b6109dc61091c6020850185610a3b565b90610dcf565b91908110156105645760051b81013590605e19813603018212156100d8570190565b60031115610a0e57565b634e487b7160e01b600052602160045260246000fd5b3560038110156100d85790565b356107d781610213565b903590601e19813603018212156100d8570180359067ffffffffffffffff82116100d857602001918160051b360383136100d857565b9291909267ffffffffffffffff841161052e578360051b906020808301610a9b604051918261050c565b80968152019181019283116100d857905b828210610ab857505050565b60208091610ac58461033f565b815201910190610aac565b9392918060408601604087525260608501919060005b818110610b0057505050926003821015610a0e5760200152565b90919260208060019263ffffffff60e01b610b1a8861033f565b168152019401929101610ae6565b908092918237016000815290565b3d15610b71573d9067ffffffffffffffff821161052e5760405191610b65601f8201601f19166020018461050c565b82523d6000602084013e565b606090565b15610b7d57565b60405162461bcd60e51b8152602060048201526015602482015274125b9a5d1a585b1a5e985d1a5bdb8819985a5b1959605a1b6044820152606490fd5b600080356001600160e01b0319168152600160205260409020546001600160a01b03168015610c045760008091368280378136915af43d6000803e15610bff573d6000f35b3d6000fd5b60405162461bcd60e51b8152602060048201526012602482015271119d5b98dd1a5bdb881b9bdd08199bdd5b9960721b6044820152606490fd5b15610c4557565b60405162461bcd60e51b8152602060048201526015602482015274496e76616c6964206661636574206164647265737360581b6044820152606490fd5b15610c8957565b60405162461bcd60e51b815260206004820152601e60248201527f4e6f2066756e6374696f6e2073656c6563746f72732070726f766964656400006044820152606490fd5b80518210156105645760209160051b010190565b15610ce957565b60405162461bcd60e51b8152602060048201526024808201527f46756e6374696f6e2073656c6563746f72206e6f7420666f756e6420696e20666044820152631858d95d60e21b6064820152608490fd5b600019810191908211610d4957565b634e487b7160e01b600052601160045260246000fd5b634e487b7160e01b600052603160045260246000fd5b6002548015610dca57600254600019820191600091831015610564576002918290527f405787fa12a823e0f2b7631cc41b3ba8828b3321ca811111fa75cd3aa3bb5acd0180546001600160a01b031916905555565b610d5f565b6001600160a01b03811691610de5831515610c3e565b610df181511515610c82565b60005b8151811015610ea05780610e9a610e1e610e1060019486610cce565b516001600160e01b03191690565b610e6487610e5e610e52610e458563ffffffff60e01b166000526001602052604060002090565b546001600160a01b031690565b6001600160a01b031690565b14610ce2565b610e94610e848263ffffffff60e01b166000526001602052604060002090565b80546001600160a01b0319169055565b856112b8565b01610df4565b50506001600160a01b031660009081526003602052604090205415610ec25750565b60005b60025480821015610f515782610ef5610e52610ee085610549565b905460039190911b1c6001600160a01b031690565b14610f035750600101610ec5565b610f499250610f1f610ee0610f1a610f2593610d3a565b610549565b91610549565b81546001600160a01b0393841660039290921b91821b9390911b1916919091179055565b610231610d75565b505050565b60025490600160401b82101561052e57600182016002556002548210156105645760026000527f405787fa12a823e0f2b7631cc41b3ba8828b3321ca811111fa75cd3aa3bb5ace90910180546001600160a01b0319166001600160a01b03909216919091179055565b919091805483101561056457600052601c60206000208360031c019260021b1690565b90815491600160401b83101561052e578261100591600161023195018155610fbf565b90919063ffffffff83549160031b9260e01c831b921b1916179055565b91906001600160a01b038316611039811515610c3e565b61104582511515610c82565b600254600091825b828110611131575b50505015611123575b60005b815181101561111d578061110761107d610e1060019486610cce565b61109d610e458263ffffffff60e01b166000526001602052604060002090565b81858060a01b03821661110d575b6001600160e01b03191660009081526001602052604090206110ea915088905b80546001600160a01b0319166001600160a01b03909216919091179055565b6001600160a01b0387166000908152600360205260409020610fe2565b01611061565b611116916112b8565b38816110ab565b50509050565b61112c83610f56565b61105e565b81611141610e52610ee084610549565b1461114e5760010161104d565b505050506001388080611055565b1561116357565b606460405162461bcd60e51b815260206004820152602060248201527f46756e6374696f6e2073656c6563746f7220616c7265616479206578697374736044820152fd5b91906001600160a01b0383166111be811515610c3e565b6111ca82511515610c82565b600254600091825b828110611263575b50505015611255575b60005b815181101561111d578061124f611202610e1060019486610cce565b61122e611228610e52610e458463ffffffff60e01b166000526001602052604060002090565b1561115c565b6110ea876110cb8363ffffffff60e01b166000526001602052604060002090565b016111e6565b61125e83610f56565b6111e3565b81611273610e52610ee084610549565b14611280576001016111d2565b5050505060013880806111da565b80548015610dca5760001901906112a58282610fbf565b63ffffffff82549160031b1b1916905555565b6001600160a01b03166000908152600360205260408120905b815480821015611341576112e58284610fbf565b90546001600160e01b031960039290921b1c60e01b81169085161461130d57506001016112d1565b61023193509061100561132b61132561133c94610d3a565b85610fbf565b90549060031b1c60e01b9184610fbf565b61128e565b5050505056fea164736f6c634300081c000a",
  "linkReferences": {},
  "deployedLinkReferences": {}
}