{
  "_format": "hh-sol-artifact-1",
  "contractName": "ScoreFacet",
  "sourceName": "contracts/score/ScoreFacet.sol",
  "abi": [
    {
      "anonymous": false,
      "inputs": [
        {
          "indexed": false,
          "internalType": "uint64",
          "name": "newCooldown",
          "type": "uint64"
        }
      ],
      "name": "CooldownUpdated",
      "type": "event"
    },
    {
      "anonymous": false,
      "inputs": [
        {
          "indexed": true,
          "internalType": "address",
          "name": "previousOwner",
          "type": "address"
        },
        {
          "indexed": true,
          "internalType": "address",
          "name": "newOwner",
          "type": "address"
        }
      ],
      "name": "OwnershipTransferred",
      "type": "event"
    },
    {
      "anonymous": false,
      "inputs": [
        {
          "indexed": true,
          "internalType": "uint64",
          "name": "id",
          "type": "uint64"
        },
        {
          "indexed": false,
          "internalType": "bytes32",
          "name": "root",
          "type": "bytes32"
        },
        {
          "indexed": false,
          "internalType": "string",
          "name": "cid",
          "type": "string"
        },
        {
          "indexed": false,
          "internalType": "uint64",
          "name": "timestamp",
          "type": "uint64"
        },
        {
          "indexed": false,
          "internalType": "address",
          "name": "updater",
          "type": "address"
        }
      ],
      "name": "SnapshotUpdated",
      "type": "event"
    },
    {
      "inputs": [],
      "name": "getCooldown",
      "outputs": [
        {
          "internalType": "uint64",
          "name": "",
          "type": "uint64"
        }
      ],
      "stateMutability": "view",
      "type": "function"
    },
    {
      "inputs": [],
      "name": "getLastUpdate",
      "outputs": [
        {
          "internalType": "uint64",
          "name": "",
          "type": "uint64"
        }
      ],
      "stateMutability": "view",
      "type": "function"
    },
    {
      "inputs": [],
      "name": "getLatestSnapshot",
      "outputs": [
        {
          "internalType": "string",
          "name": "cid",
          "type": "string"
        },
        {
          "internalType": "bytes32",
          "name": "root",
          "type": "bytes32"
        },
        {
          "internalType": "uint64",
          "name": "id",
          "type": "uint64"
        },
        {
          "internalType": "uint64",
          "name": "timestamp",
          "type": "uint64"
        }
      ],
      "stateMutability": "view",
      "type": "function"
    },
    {
      "inputs": [],
      "name": "getOwner",
      "outputs": [
        {
          "internalType": "address",
          "name": "",
          "type": "address"
        }
      ],
      "stateMutability": "view",
      "type": "function"
    },
    {
      "inputs": [
        {
          "internalType": "uint64",
          "name": "id",
          "type": "uint64"
        }
      ],
      "name": "getSnapshot",
      "outputs": [
        {
          "internalType": "string",
          "name": "cid",
          "type": "string"
        },
        {
          "internalType": "bytes32",
          "name": "root",
          "type": "bytes32"
        },
        {
          "internalType": "uint64",
          "name": "snapshotId",
          "type": "uint64"
        },
        {
          "internalType": "uint64",
          "name": "timestamp",
          "type": "uint64"
        }
      ],
      "stateMutability": "view",
      "type": "function"
    },
    {
      "inputs": [],
      "name": "getSnapshotCount",
      "outputs": [
        {
          "internalType": "uint64",
          "name": "",
          "type": "uint64"
        }
      ],
      "stateMutability": "view",
      "type": "function"
    },
    {
      "inputs": [
        {
          "internalType": "address",
          "name": "owner",
          "type": "address"
        },
        {
          "internalType": "uint64",
          "name": "cooldown",
          "type": "uint64"
        }
      ],
      "name": "initScoreFacet",
      "outputs": [],
      "stateMutability": "nonpayable",
      "type": "function"
    },
    {
      "inputs": [],
      "name": "isInitialized",
      "outputs": [
        {
          "internalType": "bool",
          "name": "",
          "type": "bool"
        }
      ],
      "stateMutability": "view",
      "type": "function"
    },
    {
      "inputs": [
        {
          "internalType": "uint64",
          "name": "seconds_",
          "type": "uint64"
        }
      ],
      "name": "setCooldown",
      "outputs": [],
      "stateMutability": "nonpayable",
      "type": "function"
    },
    {
      "inputs": [
        {
          "internalType": "uint64",
          "name": "id",
          "type": "uint64"
        }
      ],
      "name": "snapshotExists",
      "outputs": [
        {
          "internalType": "bool",
          "name": "",
          "type": "bool"
        }
      ],
      "stateMutability": "view",
      "type": "function"
    },
    {
      "inputs": [
        {
          "internalType": "address",
          "name": "newOwner",
          "type": "address"
        }
      ],
      "name": "transferOwnership",
      "outputs": [],
      "stateMutability": "nonpayable",
      "type": "function"
    },
    {
      "inputs": [
        {
          "internalType": "string",
          "name": "cid",
          "type": "string"
        },
        {
          "internalType": "bytes32",
          "name": "root",
          "type": "bytes32"
        },
        {
          "internalType": "uint64",
          "name": "snapshotId",
          "type": "uint64"
        },
        {
          "internalType": "uint64",
          "name": "timestamp",
          "type": "uint64"
        },
        {
          "internalType": "bytes",
          "name": "signature",
          "type": "bytes"
        }
      ],
      "name": "updateSnapshot",
      "outputs": [],
      "stateMutability": "nonpayable",
      "type": "function"
    }
  ],
  "bytecode": "0x6080806040523460155761189f908161001b8239f35b600080fdfe6080604052600436101561001257600080fd5b60003560e01c8063218e4a15146100d7578063392e53cd146100d25780633a0d468c146100cd5780633d0d0850146100c85780634b11982e146100c35780634c89867f146100be5780635813eef6146100b9578063761d3da1146100b4578063893d20e8146100af578063bcbcf148146100aa578063d518f243146100a55763f2fde38b146100a057600080fd5b61067a565b610634565b610600565b6105ca565b61055d565b610474565b610418565b61038d565b61030f565b6101fc565b610113565b3461010e57600036600319011261010e5760206001600160401b036000805160206118738339815191525460a01c16604051908152f35b600080fd5b3461010e57600036600319011261010e57600080516020611873833981519152546040516001600160a01b0390911615158152602090f35b600435906001600160401b038216820361010e57565b606435906001600160401b038216820361010e57565b602435906001600160401b038216820361010e57565b60005b8381106101a05750506000910152565b8181015183820152602001610190565b92936001600160401b03606093969560a08294608088526101e0815180928160808c01526020858c01910161018d565b601f801991011687010197602087015216604085015216910152565b3461010e57602036600319011261010e5761025961021861014b565b610220610b2e565b506001600160401b03166000527fe6f77a3bdbe7292b17e549eaf7f0129039a699cbf64f6f93fda9a463309b02bb602052604060002090565b60405161026581610948565b6102de60606102d16102c46040519461028986610282818a610b8d565b0387610968565b85815260026001880154978860208401520154906001600160401b038083169283604084015260401c1694859101526001600160401b031690565b916001600160401b031690565b90604051948594856101b0565b0390f35b9181601f8401121561010e578235916001600160401b03831161010e576020838186019501011161010e57565b3461010e5760a036600319011261010e576004356001600160401b03811161010e5761033f9036906004016102e2565b90604435916001600160401b038316830361010e5761035c610161565b608435936001600160401b03851161010e5761037f61038b9536906004016102e2565b949093602435916107a9565b005b3461010e57602036600319011261010e577fd652d09cf51f73abc7d0b5f7f78a6cd011b18c8c6961b22e4d22d077a284905060206103c961014b565b600080516020611873833981519152546103ed906001600160a01b03163314610a5c565b61040f6001600160401b0382169161040a62015180841115610ab2565b6112f1565b604051908152a1005b3461010e57600036600319011261010e5760206001600160401b037fe6f77a3bdbe7292b17e549eaf7f0129039a699cbf64f6f93fda9a463309b02bd5416604051908152f35b600435906001600160a01b038216820361010e57565b3461010e57604036600319011261010e5761048d61045e565b610495610177565b600080516020611873833981519152549091906001600160a01b0316610522576001600160a01b038116916104fa91906104f5906104d4851515610af2565b6104ec620151806001600160401b0383161115610ab2565b61040a8361135b565b6113e7565b60007f8be0079c531659141344cd1fd0a4f28419497f9722a3daafe3b4186f6b6457e08180a3005b60405162461bcd60e51b8152602060048201526013602482015272105b1c9958591e481a5b9a5d1a585b1a5e9959606a1b6044820152606490fd5b3461010e57602036600319011261010e5760206001600160401b0360026105bd61058561014b565b6001600160401b03166000527fe6f77a3bdbe7292b17e549eaf7f0129039a699cbf64f6f93fda9a463309b02bb602052604060002090565b0154161515604051908152f35b3461010e57600036600319011261010e57600080516020611873833981519152546040516001600160a01b039091168152602090f35b3461010e57600036600319011261010e5760206001600160401b036000805160206118138339815191525416604051908152f35b3461010e57600036600319011261010e5761064d610c10565b80516102de6020830151926001600160401b036060816040840151169201511690604051948594856101b0565b3461010e57602036600319011261010e5761069361045e565b600080516020611873833981519152546106c0906001600160a01b03166001600160a01b03163314610a5c565b6001600160a01b03811690811561072457600080516020611873833981519152546106f4906001600160a01b03169161135b565b6001600160a01b03167f8be0079c531659141344cd1fd0a4f28419497f9722a3daafe3b4186f6b6457e0600080a3005b60405162461bcd60e51b815260206004820152601160248201527024b73b30b634b2103732bb9037bbb732b960791b6044820152606490fd5b1561076457565b60405162461bcd60e51b815260206004820152601960248201527f536e617073686f74204944206d75737420696e637265617365000000000000006044820152606490fd5b9192938391948196976107ba610c10565b604001516001600160401b0316986001600160401b038316998a116107de9061075d565b6107e98815156108bd565b6107f48515156108f7565b6107ff368988610989565b8051906020012060405160208101916001600160401b0360c01b8660c01b16835287602883015260488201526001600160401b0360c01b8660c01b1660688201526050815261084f607082610968565b51902091369061085e92610989565b61086791610d49565b610870906109cf565b61087b368786610989565b926108859361104a565b60405193849333926108979486610a0f565b037fc0470980a3f1f6862b330d5eb6789f6b5356c762c8162f2ee97bdab7b95db39e91a2565b156108c457565b60405162461bcd60e51b815260206004820152600b60248201526a125b9d985b1a590810d25160aa1b6044820152606490fd5b156108fe57565b60405162461bcd60e51b815260206004820152600c60248201526b125b9d985b1a59081c9bdbdd60a21b6044820152606490fd5b634e487b7160e01b600052604160045260246000fd5b608081019081106001600160401b0382111761096357604052565b610932565b90601f801991011681019081106001600160401b0382111761096357604052565b9291926001600160401b03821161096357604051916109b2601f8201601f191660200184610968565b82948184528183011161010e578281602093846000960137010152565b156109d657565b60405162461bcd60e51b8152602060048201526011602482015270496e76616c6964207369676e617475726560781b6044820152606490fd5b939594918360609460a0926001600160401b0394885260806020890152816080890152838801376000828288010152601f80199101168501019516604084015260018060a01b0316910152565b15610a6357565b60405162461bcd60e51b815260206004820152602160248201527f4f6e6c79206f776e65722063616e2063616c6c20746869732066756e6374696f6044820152603760f91b6064820152608490fd5b15610ab957565b60405162461bcd60e51b8152602060048201526011602482015270436f6f6c646f776e20746f6f206c6f6e6760781b6044820152606490fd5b15610af957565b60405162461bcd60e51b815260206004820152600d60248201526c24b73b30b634b21037bbb732b960991b6044820152606490fd5b60405190610b3b82610948565b60006060838181528260208201528260408201520152565b90600182811c92168015610b83575b6020831014610b6d57565b634e487b7160e01b600052602260045260246000fd5b91607f1691610b62565b60009291815491610b9d83610b53565b8083529260018116908115610bf35750600114610bb957505050565b60009081526020812093945091925b838310610bd9575060209250010190565b600181602092949394548385870101520191019190610bc8565b915050602093945060ff929192191683830152151560051b010190565b610c18610b2e565b50604051610c2581610948565b6040516000805160206117f383398151915254816000610c4483610b53565b8083529260018116908115610d2a5750600114610cbd575b610c6892500382610968565b81527fe6f77a3bdbe7292b17e549eaf7f0129039a699cbf64f6f93fda9a463309b02b95460208201526001600160401b0360008051602061181383398151915254818116604084015260401c16606082015290565b506000805160206117f3833981519152600090815290917f0df314dc60827dc0b69a1fa2400157359ec12043aaac426f1dbf0dde69f7ee485b818310610d0e575050906020610c6892820101610c5c565b6020919350806001915483858801015201910190918392610cf6565b60209250610c6894915060ff191682840152151560051b820101610c5c565b60405160208101917f19457468657265756d205369676e6564204d6573736167653a0a3332000000008352603c820152603c8152610d88605c82610968565b5190206041825103610e4f576020828101516040808501516060808701518351968752600090811a878701529286019390935291840191909152808052909160809060015afa15610e4a57600051610ddf8261149f565b610df757610def610df492611558565b611668565b90565b60405162461bcd60e51b815260206004820152602560248201527f446569642076616c696461746f72207369676e617475726520616c7265616479604482015264081d5cd95960da1b6064820152608490fd5b611493565b60405162461bcd60e51b815260206004820152601860248201527f496e76616c6964207369676e6174757265206c656e67746800000000000000006044820152606490fd5b601f8211610ea157505050565b6000526020600020906020601f840160051c83019310610edc575b601f0160051c01905b818110610ed0575050565b60008155600101610ec5565b9091508190610ebc565b919080519283516001600160401b03811161096357610f0f81610f098454610b53565b84610e94565b6020601f8211600114610fd157610f9d92610f4c83606094600294610fc4999a600092610fc6575b50508160011b916000199060031b1c19161790565b81555b602085015160018201550192610f8f610f7260408301516001600160401b031690565b855467ffffffffffffffff19166001600160401b03909116178555565b01516001600160401b031690565b67ffffffffffffffff60401b82549160401b169067ffffffffffffffff60401b1916179055565b565b015190503880610f37565b601f19821695610fe684600052602060002090565b9660005b818110611032575083610fc49798600294610f9d979460609760019510611019575b505050811b018155610f4f565b015160001960f88460031b161c1916905538808061100c565b83830151895560019098019760209384019301610fea565b9190939261105a835115156108bd565b6110658515156108f7565b6001600160401b0360008051602061181383398151915254166110936001600160401b03841691821161075d565b604051936110a085610948565b845260208401958652604084019081526001600160401b03606085019216825283519586516001600160401b03811161096357611103816110ef6000805160206117f383398151915254610b53565b6000805160206117f3833981519152610e94565b6020601f821160011461123b5761118b610585946111c29461114a856111f99a99966111b5966111fe9e9f600092610fc65750508160011b916000199060031b1c19161790565b6000805160206117f3833981519152555b517fe6f77a3bdbe7292b17e549eaf7f0129039a699cbf64f6f93fda9a463309b02b955516001600160401b031690565b600080516020611813833981519152906001600160401b03166001600160401b0319825416179055565b516001600160401b031690565b6000805160206118138339815191529067ffffffffffffffff60401b82549160401b169067ffffffffffffffff60401b1916179055565b610ee6565b7fe6f77a3bdbe7292b17e549eaf7f0129039a699cbf64f6f93fda9a463309b02bd805467ffffffffffffffff1916426001600160401b0316179055565b6000805160206117f3833981519152600052601f198216987f0df314dc60827dc0b69a1fa2400157359ec12043aaac426f1dbf0dde69f7ee489960005b8181106112d95750946111c2946001856111fe9c9d6111b59661118b966111f99d9c996105859c106112c0575b505050811b016000805160206117f38339815191525561115b565b015160001960f88460031b161c191690553880806112a5565b838301518c556001909b019a60209384019301611278565b600080516020611873833981519152805467ffffffffffffffff60a01b191660a09290921b67ffffffffffffffff60a01b169190911790557fe6f77a3bdbe7292b17e549eaf7f0129039a699cbf64f6f93fda9a463309b02bd546001600160401b0316156111fe57565b60018060a01b03166bffffffffffffffffffffffff60a01b60008051602061187383398151915254161760008051602061187383398151915255565b634e487b7160e01b600052603260045260246000fd5b600080516020611833833981519152548110156113e25760008051602061183383398151915260005260206000200190600090565b611397565b6113f081611668565b156113f85750565b60008051602061185383398151915254600160401b8110156109635760018101600080516020611853833981519152556000600080516020611853833981519152548210156113e25760008051602061185383398151915290527f732a11aa9b876e93e6156ba9356f45a59d36f4e574a1660f5df7ed7d1c03f3090180546001600160a01b0319166001600160a01b03909216919091179055565b6040513d6000823e3d90fd5b60008051602061183383398151915254906001600160401b03821161096357604051916114d260208260051b0184610968565b80835260008051602061183383398151915260009081527f6143f10953e4fbed1522382278ab1322081ef721720d4eac45504d08f839dd17602085015b83831061152c5750505050611527906000199261172e565b141590565b60016020819260405161154a816115438189610b8d565b0382610968565b81520192019201919061150f565b9060008051602061183383398151915254600160401b811015610963578060016115929201600080516020611833833981519152556113ad565b6116525782516001600160401b038111610963576115b481610f098454610b53565b6020601f82116001146115e95781906115e5939495600092610fc65750508160011b916000199060031b1c19161790565b9055565b601f198216906115fe84600052602060002090565b9160005b81811061163a57509583600195969710611621575b505050811b019055565b015160001960f88460031b161c19169055388080611617565b9192602060018192868b015181550194019201611602565b634e487b7160e01b600052600060045260246000fd5b604051908180926020600080516020611853833981519152549182815201906000805160206118538339815191526000527f732a11aa9b876e93e6156ba9356f45a59d36f4e574a1660f5df7ed7d1c03f3099060005b8181106116e15750505061152792916116d8910384610968565b600019926117ba565b82546001600160a01b03168452869450602090930192600192830192016116be565b80518210156113e25760209160051b010190565b9061172a6020928281519485920161018d565b0190565b9060005b82518110156117b1576117458184611703565b5160405161177460208281611763818301968781519384920161018d565b81010301601f198101835282610968565b519020604051602081019061179b8161178d8488611717565b03601f198101835282610968565b519020146117ab57600101611732565b91505090565b50505060001990565b9060005b82518110156117b1576001600160a01b036117d98285611703565b51166001600160a01b038316146117ab576001016117be56fee6f77a3bdbe7292b17e549eaf7f0129039a699cbf64f6f93fda9a463309b02b8e6f77a3bdbe7292b17e549eaf7f0129039a699cbf64f6f93fda9a463309b02bac48fc816533f30037aec7cfb5ae61f31811475ef705fc209cf71834561dd1813c48fc816533f30037aec7cfb5ae61f31811475ef705fc209cf71834561dd1812e6f77a3bdbe7292b17e549eaf7f0129039a699cbf64f6f93fda9a463309b02bca164736f6c634300081c000a",
  "linkReferences": {},
  "deployedLinkReferences": {}
}